:020000040800F2
:10000000000003207D0D0008510D0008530D00086D
:10001000550D0008570D0008590D0008000000009C
:100020000000000000000000000000005B0D000860
:100030005D0D0008000000005F0D0008610D000864
:10004000CD0D0008CD0D0008CD0D0008CD0D000828
:10005000CD0D0008CD0D0008CD0D0008CD0D000818
:10006000CD0D0008CD0D0008CD0D0008CD0D000808
:10007000CD0D0008CD0D0008CD0D0008CD0D0008F8
:10008000CD0D0008CD0D0008CD0D0008CD0D0008E8
:10009000CD0D0008CD0D0008CD0D0008CD0D0008D8
:1000A000CD0D0008CD0D0008CD0D0008CD0D0008C8
:1000B000CD0D0008CD0D0008CD0D0008CD0D0008B8
:1000C000CD0D0008CD0D0008CD0D0008CD0D0008A8
:1000D000CD0D0008CD0D0008CD0D0008CD0D000898
:1000E000CD0D0008CD0D0008CD0D0008CD0D000888
:1000F000CD0D0008CD0D0008CD0D0008CD0D000878
:10010000CD0D0008CD0D0008CD0D0008CD0D000867
:10011000CD0D0008CD0D0008CD0D0008CD0D000857
:10012000CD0D0008CD0D0008CD0D0008CD0D000847
:10013000CD0D0008CD0D0008CD0D0008CD0D000837
:10014000CD0D0008CD0D0008CD0D0008CD0D000827
:10015000CD0D0008CD0D0008CD0D0008CD0D000817
:10016000CD0D0008CD0D0008CD0D0008CD0D000807
:10017000CD0D0008CD0D0008CD0D000800000000D9
:10018000CD0D0008CD0D0008CD0D0008CD0D0008E7
:10019000CD0D0008CD0D0008CD0D0008CD0D0008D7
:0C01A0000000000000000000CD0D000871
:1001AC0053B94AB9002908BF00281CBF4FF0FF31D2
:1001BC004FF0FF3000F00CB8ADF1080C6DE904CE37
:1001CC0000F02CFEDDF804E0DDE9022304B07047FA
:1001DC00704700BF0348044B834202D0034B03B16A
:1001EC00184770470C0000200C0000200000000095
:1001FC000548064B1B1AD90F01EBA301491002D07D
:10020C00034B03B1184770470C0000200C00002072
:10021C000000000010B5064C237843B9FFF7DAFF55
:10022C00044B13B10448AFF300800123237010BDBD
:10023C000C00002000000000E410000808B5054B7D
:10024C001BB105490548AFF30080BDE80840FFF736
:10025C00CFBF00BF0000000010000020E410000819
:10026C0010B504460E4B1A784FF47A73B3FBF2F3C5
:10027C000C4A1068B0FBF3F000F09AF868B90F2C38
:10028C0001D901200AE0002221464FF0FF3000F096
:10029C007FF8054B1C60002000E0012010BD00BF62
:1002AC0000000020080000200400002008B50B4BC3
:1002BC001A6842F400721A601A6842F480621A607A
:1002CC001A6842F480721A60032000F04FF80F2075
:1002DC00FFF7C6FF00F01AFD002008BD003C0240ED
:1002EC00034A1168034B1B780B441360704700BF23
:1002FC002800002000000020014B1868704700BF48
:10030C0028000020002808DB0901C9B200F1604078
:10031C0000F5614080F80013704700F00F000901F0
:10032C00C9B2014B1954704714ED00E000B500F050
:10033C000700C0F1070CBCF1040F28BF4FF0040CF0
:10034C00031D062B0FD9C31E4FF0FF3E0EFA0CF007
:10035C0021EA000199400EFA03FE22EA0E0241EA5C
:10036C0002005DF804FB0023EEE70000074AD368A7
:10037C0023F4E0631B041B0C000200F4E060034355
:10038C0043F0BF6343F40033D360704700ED00E0EB
:10039C0010B50446054BD868C0F30220FFF7C6FF22
:1003AC0001462046FFF7AEFF10BD00BF00ED00E098
:1003BC000138B0F1807F0BD24FF0E0235861054A31
:1003CC00F02182F823100020986107221A617047EF
:1003DC000120704700ED00E000230F2B00F2F680A7
:1003EC0070B582B066E085684FEA430E032404FAC8
:1003FC000EF425EA0405CC6804FA0EF42C43846050
:10040C00446824EA02044A68C2F300129A40224368
:10041C0042605DE0DC08083450F8242003F0070546
:10042C00AD004FF00F0E0EFA05FE22EA0E0E0A6911
:10043C00AA4042EA0E0240F824205DE0092200E0C6
:10044C00002202FA0EF22A430234614D45F82420B0
:10045C00604A94686FEA0C0224EA0C054E6816F4A4
:10046C00801F01D04CEA04055A4CA560E46802EAEE
:10047C0004054E6816F4001F01D04CEA0405554CD7
:10048C00E560646802EA04054E6816F4003F01D08A
:10049C004CEA04054F4C6560246822404D6815F405
:1004AC00803F01D04CEA04024A4C226001330F2BEE
:1004BC0000F28A8001229A400C6804EA020C32EAAB
:1004CC000404F3D14C6804F00304013C012C8AD9D8
:1004DC004A6802F00302032A09D0C4685D000322B3
:1004EC00AA4024EA02048A68AA402243C2604A68ED
:1004FC0002F00302022A8DD004684FEA430E032255
:10050C0002FA0EF224EA02044A6802F0030202FA2A
:10051C000EF2224302604A6812F4403FC6D0002219
:10052C0001922D4A546C44F480445464526C02F48D
:10053C0080420192019A9C08A51C254A52F825502C
:10054C0003F0030E4FEA8E0E0F2202FA0EF225EA8A
:10055C000205224A90423FF473AF02F5806290424A
:10056C0022D002F58062904220D002F58062904247
:10057C001ED002F5806290421CD002F5806290423F
:10058C001AD002F58062904218D002F58062904237
:10059C0016D002F58062904214D002F5806290422F
:1005AC003FF44CAF0A224CE701224AE7022248E70B
:1005BC00032246E7042244E7052242E7062240E7ED
:1005CC0007223EE708223CE702B070BD704700BF2F
:1005DC0000380140003C014000380240000002405D
:1005EC000AB181617047090481617047002800F0ED
:1005FC00E08170B582B00446036813F0010F3BD064
:10060C009F4B9B6803F00C03042B2CD09C4B9B68DA
:10061C0003F00C03082B21D06368B3F5803F4FD057
:10062C00B3F5A02F52D0964B1A6822F480321A6080
:10063C001A6822F480221A606368002B50D0FFF7EE
:10064C005BFE05468E4B1B6813F4003F14D1FFF77D
:10065C0053FE401B6428F5D90320B1E1884B5B683D
:10066C0013F4800FD8D0864B1B6813F4003F03D0D3
:10067C006368002B00F09F81236813F0020F54D0A5
:10068C007F4B9B6813F00C0F3ED07D4B9B6803F0A7
:10069C000C03082B33D0E368002B68D0794B012274
:1006AC001A60FFF729FE0546754B1B6813F0020F05
:1006BC0054D1FFF721FE401B0228F5D903207FE11E
:1006CC006F4A136843F480331360B5E76C4B1A68B8
:1006DC0042F480221A601A6842F480321A60ABE746
:1006EC00FFF70AFE0546664B1B6813F4003FC3D0A8
:1006FC00FFF702FE401B6428F5D9032060E1604B34
:10070C005B6813F4800FC6D15D4B1B6813F0020FAE
:10071C0003D0E368012B40F05081594A136823F051
:10072C00F803216943EAC1031360236813F0080F2F
:10073C0042D063696BB3534B0122C3F8802EFFF791
:10074C00DBFD05464E4B5B6F13F0020F34D1FFF708
:10075C00D3FD401B0228F5D9032031E1484A136828
:10076C0023F0F803216943EAC1031360DDE7454B2D
:10077C0000221A60FFF7C0FD0546414B1B6813F0C1
:10078C00020FD2D0FFF7B8FD401B0228F5D9032089
:10079C0016E13C4B0022C3F8802EFFF7ADFD054659
:1007AC00374B5B6F13F0020F06D0FFF7A5FD401B14
:1007BC000228F5D9032003E1236813F0040F77D046
:1007CC002F4B1B6C13F0805F33D1002301932C4B08
:1007DC001A6C42F080521A641B6C03F08053019324
:1007EC00019B0125284B1B6813F4807F23D0A36841
:1007FC00012B34D0052B38D0214B1A6F22F001027B
:10080C001A671A6F22F004021A67A368002B3DD0F6
:10081C00FFF772FD06461A4B1B6F13F0020F46D101
:10082C00FFF76AFD801B41F288339842F3D903200D
:10083C00C6E00025D6E7144A136843F480731360AE
:10084C00FFF75AFD0646104B1B6813F4807FCED180
:10085C00FFF752FD801B0228F5D90320B0E0084AAF
:10086C00136F43F001031367CFE7054B1A6F42F088
:10087C0004021A671A6F42F001021A67C5E700BF3B
:10088C00003802400000474200700040FFF734FD82
:10089C000646524B1B6F13F0020F08D0FFF72CFDCE
:1008AC00801B41F288339842F3D9032088E0EDB9DC
:1008BC00A369002B00F08380484A926802F00C0276
:1008CC00082A51D0022B17D0454B00221A66FFF78D
:1008DC0013FD0446414B1B6813F0007F42D0FFF719
:1008EC000BFD001B0228F5D9032069E03B4A136C71
:1008FC0023F080531364DBE7394B00221A66FFF7B1
:10090C00FBFC0546354B1B6813F0007F06D0FFF748
:10091C00F3FC401B0228F5D9032051E0E369226A5D
:10092C001343626A43EA8213A26A5208013A43EA09
:10093C000243E26A43EA0263284A5360284B0122CD
:10094C001A66FFF7D9FC0446244B1B6813F0007F92
:10095C0006D1FFF7D1FC001B0228F5D903202FE0AC
:10096C0000202DE000202BE0012B2BD01B4B5B68D3
:10097C0003F48001E269914226D103F03F02216A1F
:10098C008A4223D1616A47F6C0721A40B2EB811FCA
:10099C001ED103F44031A26A5208013AB1EB024F66
:1009AC0018D103F07063E26AB3EB026F14D100202C
:1009BC0006E001207047012002E0012000E0002049
:1009CC0002B070BD0120FBE70120F9E70120F7E739
:1009DC000120F5E70120F3E70120F1E700380240A0
:1009EC000000474208B5264B9B6803F00C03042B10
:1009FC0041D0082B41D1224B5A6802F03F025B6870
:100A0C0013F4800F12D01E4B5968C1F388111D4886
:100A1C000023A1FB0001FFF7C3FB194B5B68C3F379
:100A2C00014301335B00B0FBF3F027E0144B586833
:100A3C00C0F388104FEA401CBCEB000C6EEB0E0EA2
:100A4C004FEA8E1343EA9C634FEA8C11B1EB0C0115
:100A5C0063EB0E03DB0043EA5173C90011EB000C8E
:100A6C0043F10003990200234FEA8C2041EA9C5188
:100A7C00FFF796FBD1E7034800E0034808BD00BF31
:100A8C000038024040787D010024F400002800F07A
:100A9C009B8070B50D4604464F4B1B6803F00F034B
:100AAC008B4208D2CBB24C4A1370136803F00F037D
:100ABC008B4240F08B80236813F0020F17D013F099
:100ACC00040F04D0454A936843F4E05393602368C1
:100ADC0013F0080F04D0414A936843F460439360C9
:100AEC003E4A936823F0F003A1680B43936023689C
:100AFC0013F0010F32D06368012B21D09A1E012A0A
:100B0C0025D9364A126812F0020F61D033498A682F
:100B1C0022F0030213438B60FFF7EEFB06462F4BCC
:100B2C009B6803F00C036268B3EB820F16D0FFF7DF
:100B3C00E3FB801B41F288339842F0D9032042E05A
:100B4C00264A126812F4003FE0D101203BE0234A10
:100B5C00126812F0007FD9D1012034E01E4B1B68C3
:100B6C0003F00F03AB4207D9EAB21B4B1A701B6898
:100B7C0003F00F03AB422DD1236813F0040F06D002
:100B8C00164A936823F4E053E1680B43936023689F
:100B9C0013F0080F07D0114A936823F460432169BE
:100BAC0043EAC1039360FFF71DFF0C4B9B68C3F333
:100BBC0003130B4AD35CD8400A4B18600A4B1868D5
:100BCC00FFF74EFB002070BD012070470120FAE7B3
:100BDC000120F8E70120F6E7003C02400038024013
:100BEC00FC100008080000200400002030B589B07B
:100BFC000024039404940594069407940094194BD0
:100C0C001A6B42F001021A631A6B02F00102009295
:100C1C00009A01941A6B42F080021A631A6B02F06C
:100C2C0080020192019A02941A6B42F010021A632C
:100C3C001B6B03F010030293029B0B4D22464FF4E7
:100C4C0000612846FFF7CCFC4FF4006303930123AB
:100C5C0004930594069403A92846FFF7BDFB09B03D
:100C6C0030BD00BF003802400010024072B6FEE7F3
:100C7C0000B595B03022002108A800F0C7F8002379
:100C8C00039304930593069307930193194A116CEC
:100C9C0041F080511164126C02F080520192019A61
:100CAC00029315490A6822F4404242F480420A60D9
:100CBC000A6802F440420292029A0222089201222D
:100CCC000B9210220C920E9308A8FFF78FFC68B9B8
:100CDC000F2303930021049105910691079103A81A
:100CEC00FFF7D4FE20B915B05DF804FBFFF7BEFF8B
:100CFC00FFF7BCFF003802400070004008B5FFF75A
:100D0C00D5FAFFF7B5FFFFF771FFFEE782B00021C0
:100D1C0000910B4B5A6C42F480425A645A6C02F4A8
:100D2C0080420092009A01911A6C42F080521A642F
:100D3C001B6C03F080530193019B02B0704700BF02
:100D4C0000380240FEE7FEE7FEE7FEE7FEE77047ED
:100D5C007047704708B5FFF7C3FA08BD034AD2F8CD
:100D6C00883043F47003C2F88830704700ED00E01F
:100D7C00DFF834D00D480E490E4A002302E0D45857
:100D8C00C4500433C4188C42F9D30B4A0B4C0023C7
:100D9C0001E013600432A242FBD3FFF7DFFF00F047
:100DAC0011F8FFF7ABFF7047000003200000002094
:100DBC000C0000201C1100080C0000202C0000204E
:100DCC00FEE7000070B50D4D0D4C641BA410002601
:100DDC00A64209D10B4D0C4C00F07EF9641BA410FB
:100DEC000026A64205D170BD55F8043B9847013644
:100DFC00EEE755F8043B98470136F2E7141100086A
:100E0C0014110008141100081811000802440346BC
:100E1C00934200D1704703F8011BF9E72DE9F04725
:100E2C00089D0C46002B4ED194468C458646B2FA52
:100E3C0082F262D94AB1C2F12003914020FA03F345
:100E4C000CFA02FC194300FA02FE4FEA1C471FFA87
:100E5C008CF6B1FBF7F44FEA1E4307FB141143EA7F
:100E6C00014304FB06F199420AD91CEB030304F17C
:100E7C00FF3080F01281994240F20F81023C6344B2
:100E8C00591A1FFA8EF3B1FBF7F007FB101143EA66
:100E9C00014300FB06F69E420AD91CEB030300F14A
:100EAC00FF3180F0FC809E4240F2F98063440238AE
:100EBC009B1B40EA044000211DB1D3400022C5E930
:100ECC000032BDE8F0878B4205D90DB1C5E90001B0
:100EDC0000210846F5E7B3FA83F1002946D1A34275
:100EEC0002D39042C0F0F080861A64EB0303012019
:100EFC00002DE6D0C5E90063E3E7002A40F09080BE
:100F0C00A1EB0C044FEA1C481FFA8CF70121B4FB2F
:100F1C00F8F64FEA1E4308FB164443EA044307FB6A
:100F2C0006F0984208D91CEB030306F1FF3402D2F9
:100F3C00984200F2CD8026461C1A1FFA8EF3B4FBA1
:100F4C00F8F008FB104443EA044300FB07F79F4208
:100F5C0008D91CEB030300F1FF3402D29F4200F2CC
:100F6C00B0802046DB1B40EA0640A5E7C1F1200615
:100F7C008B4022FA06F71F4320FA06FC04FA01F311
:100F8C0043EA0C03F44000FA01F8380C4FEA134919
:100F9C00B4FBF0FE1FFA87FC00FB1E4449EA044434
:100FAC000EFB0CF9A14502FA01F20AD93C190EF11B
:100FBC00FF3A80F08480A14540F28180AEF1020EB0
:100FCC003C44A4EB09041FFA83F9B4FBF0F300FBD7
:100FDC00134449EA044403FB0CFCA44507D93C190F
:100FEC0003F1FF3067D2A44565D9023B3C4443EA88
:100FFC000E40A0FB0293A4EB0C049C42CE469C46F4
:10100C0051D34ED055B1B8EB0E0364EB0C0404FA7B
:10101C0006F6CB401E43CC40C5E90064002150E7E6
:10102C00C2F1200320FA03F10CFA02FC24FA03F3B8
:10103C0094400C434FEA1C4800FA02FE1FFA8CF74E
:10104C00B3FBF8F008FB1031230C43EA014300FB1F
:10105C0007F1994208D91CEB030300F1FF362CD29F
:10106C0099422AD9023863445B1AA4B2B3FBF8F153
:10107C0008FB113344EA034401FB07F3A34208D9EC
:10108C001CEB040401F1FF3613D2A34211D902392F
:10109C006444E41A41EA004139E70446F0E60846A4
:1010AC0006E7C845AED2B9EB020E63EB070C01386C
:1010BC00A8E73146EDE7034699E73046D4E7D64634
:1010CC007FE7634402384DE70646234608460FE7A0
:1010DC00023E634430E700BFF8B500BFF8BC08BC63
:1010EC009E467047F8B500BFF8BC08BC9E467047DA
:1010FC0000000000000000000102030406070809BC
:08110C001CFDFF7F0100000043
:041114004902000884
:0411180021020008A8
:0C111C0001000000100000000024F4009E
:0400000508000D7D65
:00000001FF
