:020000040800F2
:1000000000500020352500083D2200083F2200084E
:100010004122000843220008452200080000000099
:10002000000000000000000000000000472200085F
:1000300049220008000000004B2200084D22000861
:100040007D2500087D2500087D2500087D25000808
:100050007D2500087D2500087D2500087D250008F8
:100060007D2500087D2500087D2500087D250008E8
:100070007D2500087D25000855220008652200081E
:100080007D2500087D2500087D2500087D250008C8
:100090007D2500087D2500087D2500087D250008B8
:1000A0007D2500087D2500087D2500087D250008A8
:1000B0007D2500087D2500087D2500087D25000898
:1000C0007D2500087D2500087D2500087D25000888
:1000D0007D250008752200087D2500087D25000883
:1000E0007D2500087D2500087D2500080000000012
:1000F0000000000000000000000000000000000000
:0C01000000000000000000005FF808F1A3
:10011000844641EA000313F0030349D1403A23D354
:100120000B6803604B6843608B688360CB68C36077
:100130000B6903614B6943618B698361CB69C3615F
:100140000B6A03624B6A43628B6A8362CB6AC36247
:100150000B6B03634B6B43638B6B8363CB6BC3632F
:1001600040304031403ADBD230320BD30B68036071
:100170004B6843608B688360CB68C360103010317C
:10018000103AF3D20C3205D351F8043B40F8043B4B
:10019000043AF9D2043208D0D2071CBF11F8013B4F
:1001A00000F8013B01D30B8803806046704700BF15
:1001B000082A13D38B07B1D010F00303AED0C3F1DC
:1001C0000403D21ADB071CBF11F8013B00F8013B06
:1001D000A4D331F8023B20F8023B9FE7043AD9D37D
:1001E000013A11F8013B00F8013BF9D20B7803709A
:1001F0004B7843708B7883706046704781F0004184
:1002000002E000BF83F0004330B54FEA41044FEAFB
:10021000430594EA050F08BF90EA020F1FBF54EA96
:10022000000C55EA020C7FEA645C7FEA655C00F032
:10023000E2804FEA5454D4EB5555B8BF6D420CDD03
:100240002C4480EA020281EA030382EA000083EA86
:10025000010180EA020281EA0303362D88BF30BD26
:1002600011F0004F4FEA01314FF4801C4CEA11317C
:1002700002D0404261EB410113F0004F4FEA0333DB
:100280004CEA133302D0524263EB430394EA050F66
:1002900000F0A780A4F10104D5F1200E0DDB02FAD5
:1002A0000EFC22FA05F2801841F1000103FA0EF269
:1002B000801843FA05F359410EE0A5F120050EF12F
:1002C000200E012A03FA0EFC28BF4CF0020C43FA60
:1002D00005F3C01851EBE37101F0004507D54FF06D
:1002E000000EDCF1000C7EEB00006EEB0101B1F5BD
:1002F000801F1BD3B1F5001F0CD349085FEA300003
:100300004FEA3C0C04F101044FEA445212F5800F0D
:1003100080F09A80BCF1004F08BF5FEA500C50F1AA
:10032000000041EB045141EA050130BD5FEA4C0C8D
:10033000404141EB0101013C28BFB1F5801FE9D2EA
:1003400091F0000F04BF01460020B1FA81F308BF0D
:100350002033A3F10B03B3F120020CDA0C3208DDD9
:1003600002F1140CC2F10C0201FA0CF021FA02F1B4
:100370000CE002F11402D8BFC2F1200C01FA02F124
:1003800020FA0CFCDCBF41EA0C019040E41AA2BF49
:1003900001EB0451294330BD6FEA04041F3C1CDA11
:1003A0000C340EDC04F11404C4F1200220FA04F031
:1003B00001FA02F340EA030021FA04F345EA0301DB
:1003C00030BDC4F10C04C4F1200220FA02F001FA9D
:1003D00004F340EA0300294630BD21FA04F029461F
:1003E00030BD94F0000F83F4801306BF81F48011B8
:1003F0000134013D4EE77FEA645C18BF7FEA655C2B
:1004000029D094EA050F08BF90EA020F05D054EAFC
:10041000000C04BF1946104630BD91EA030F1EBF01
:100420000021002030BD5FEA545C05D14000494105
:1004300028BF41F0004130BD14F580043CBF01F5F8
:10044000801130BD01F0004545F0FE4141F47001DE
:100450004FF0000030BD7FEA645C1ABF19461046B9
:100460007FEA655C1CBF0B46024650EA013406BFBA
:1004700052EA033591EA030F41F4002130BD00BF79
:1004800090F0000F04BF0021704730B54FF4806436
:1004900004F132044FF000054FF0000150E700BFB7
:1004A00090F0000F04BF0021704730B54FF4806416
:1004B00004F1320410F0004548BF40424FF0000103
:1004C0003EE700BF42004FEAE2014FEA31014FEA46
:1004D00002701FBF12F07F4393F07F4F81F0605195
:1004E000704732F07F4208BF704793F07F4F04BFE0
:1004F00041F40021704730B54FF4607401F00045BD
:1005000021F000411CE700BF50EA010208BF70471C
:1005100030B54FF000050AE050EA010208BF70470D
:1005200030B511F0004502D5404261EB41014FF476
:10053000806404F132045FEA915C3FF4D8AE4FF07E
:1005400003025FEADC0C18BF03325FEADC0C18BF61
:10055000033202EBDC02C2F1200300FA03FC20FAB2
:1005600002F001FA03FE40EA0E0021FA02F11444FF
:10057000BDE600BF70B54FF0FF0C4CF4E06C1CEA18
:1005800011541DBF1CEA135594EA0C0F95EA0C0F89
:1005900000F0DEF82C4481EA030621EA4C5123EAFC
:1005A0004C5350EA013518BF52EA033541F480112B
:1005B00043F4801338D0A0FB02CE4FF00005E1FBDE
:1005C00002E506F00042E0FB03E54FF00006E1FB28
:1005D00003569CF0000F18BF4EF0010EA4F1FF046B
:1005E000B6F5007F64F5407404D25FEA4E0E6D41AB
:1005F00046EB060642EAC62141EA55514FEAC520BC
:1006000040EA5E504FEACE2EB4F1FD0C88BFBCF537
:10061000E06F1ED8BEF1004F08BF5FEA500E50F1E8
:10062000000041EB045170BD06F0004646EA0101AE
:1006300040EA020081EA0301B4EB5C04C2BFD4EBE0
:100640000C0541EA045170BD41F480114FF0000ED9
:10065000013C00F3AB8014F1360FDEBF002001F047
:10066000004170BDC4F10004203C35DA0C341BDCC1
:1006700004F11404C4F1200500FA05F320FA04F093
:1006800001FA05F240EA020001F0004221F00041C7
:1006900010EBD37021FA04F642EB06015EEA430E3A
:1006A00008BF20EAD37070BDC4F10C04C4F120056A
:1006B00000FA04F320FA05F001FA04F240EA02001D
:1006C00001F0004110EBD37041F100015EEA430EEE
:1006D00008BF20EAD37070BDC4F1200500FA05F20E
:1006E0004EEA020E20FA04F301FA05F243EA02038D
:1006F00021FA04F001F0004121FA04F220EA02009C
:1007000000EBD3705EEA430E08BF20EAD37070BDE1
:1007100094F0000F0FD101F00046400041EB0101C1
:1007200011F4801F08BF013CF7D041EA060195F0A3
:10073000000F18BF704703F00046520043EB03035D
:1007400013F4801F08BF013DF7D043EA060370474A
:1007500094EA0C0F0CEA135518BF95EA0C0F0CD055
:1007600050EA410618BF52EA4306D1D181EA03019B
:1007700001F000414FF0000070BD50EA410606BF95
:100780001046194652EA430619D094EA0C0F02D1DA
:1007900050EA013613D195EA0C0F05D152EA03361F
:1007A0001CBF104619460AD181EA030101F000413D
:1007B00041F0FE4141F470014FF0000070BD41F086
:1007C000FE4141F4780170BD70B54FF0FF0C4CF460
:1007D000E06C1CEA11541DBF1CEA135594EA0C0F7F
:1007E00095EA0C0F00F0A7F8A4EB050481EA030ECC
:1007F00052EA03354FEA013100F088804FEA0333B3
:100800004FF0805545EA131343EA12634FEA022280
:1008100045EA111545EA10654FEA00260EF0004141
:100820009D4208BF964244F1FD0404F5407402D293
:100830005B084FEA3202B61A65EB03055B084FEA24
:1008400032024FF480104FF4002CB6EB020E75EB21
:10085000030E22BFB61A754640EA0C005B084FEA49
:100860003202B6EB020E75EB030E22BFB61A7546C6
:1008700040EA5C005B084FEA3202B6EB020E75EB11
:10088000030E22BFB61A754640EA9C005B084FEA89
:100890003202B6EB020E75EB030E22BFB61A754696
:1008A00040EADC0055EA060E18D04FEA051545EA85
:1008B00016754FEA06164FEAC30343EA52734FEA2E
:1008C000C2025FEA1C1CC0D111F4801F0BD141EAA7
:1008D00000014FF000004FF0004CB6E711F4801F0C
:1008E00004BF01430020B4F1FD0C88BFBCF5E06FEC
:1008F0003FF6AFAEB5EB030C04BFB6EB020C5FEAFC
:10090000500C50F1000041EB045170BD0EF0004E50
:100910004EEA113114EB5C04C2BFD4EB0C0541EA82
:10092000045170BD41F480114FF0000E013C90E67F
:1009300045EA060E8DE60CEA135594EA0C0F08BF43
:1009400095EA0C0F3FF43BAF94EA0C0F0AD150EA42
:1009500001347FF434AF95EA0C0F7FF425AF1046D5
:1009600019462CE795EA0C0F06D152EA03353FF4FD
:10097000FDAE1046194622E750EA410618BF52EA7A
:1009800043067FF4C5AE50EA41047FF40DAF52EA4E
:1009900043057FF4EBAE12E74FF0FF3C06E000BFEB
:1009A0004FF0010C02E000BF4FF0010C4DF804CDF8
:1009B0004FEA410C7FEA6C5C4FEA430C18BF7FEAB8
:1009C0006C5C1BD001B050EA410C0CBF52EA430CE6
:1009D00091EA030F02BF90EA020F0020704710F166
:1009E000000F91EA030F58BF994208BF90422CBFF5
:1009F000D8176FEAE37040F0010070474FEA410CEE
:100A00007FEA6C5C02D150EA013C07D14FEA430C0B
:100A10007FEA6C5CD6D152EA033CD3D05DF8040B7C
:100A2000704700BF8446104662468C4619466346AE
:100A300000E000BF01B5FFF7B7FF002848BF10F185
:100A4000000F01BD4DF808EDFFF7F4FF0CBF0120CA
:100A500000205DF808FB00BF4DF808EDFFF7EAFF46
:100A600034BF012000205DF808FB00BF4DF808ED01
:100A7000FFF7E0FF94BF012000205DF808FB00BFF6
:100A80004DF808EDFFF7CEFF94BF012000205DF880
:100A900008FB00BF4DF808EDFFF7C4FF34BF01208D
:100AA00000205DF808FB00BF4FEA410C7FEA6C5C58
:100AB00002D150EA013C0AD14FEA430C7FEA6C5C58
:100AC00002D152EA033C02D14FF0000070474FF0D0
:100AD000010070474FEA410212F5001215D211D5FC
:100AE0006FF47873B3EB625212D94FEAC12343F02B
:100AF000004343EA505311F0004F23FA02F018BFAD
:100B0000404270474FF00000704750EA013005D175
:100B100011F0004008BF6FF0004070474FF0000038
:100B2000704700BF0348044B834202D0034B03B11C
:100B300018477047C4060020C406002000000000CB
:100B40000548064B1B1AD90F01EBA301491002D02F
:100B5000034B03B118477047C4060020C4060020A9
:100B60000000000010B5064C237843B9FFF7DAFF08
:100B7000044B13B10448AFF300800123237010BD70
:100B8000C4060020000000006089000808B5054B7D
:100B90001BB105490548AFF30080BDE80840FFF7E9
:100BA000CFBF00BF00000000C80600206089000819
:100BB00010B504460E4B1A784FF47A73B3FBF2F378
:100BC0000C4A1068B0FBF3F000F0A0F868B90F2CE5
:100BD00001D901200AE0002221464FF0FF3000F049
:100BE00077F8054B1C60002000E0012010BD00BF1D
:100BF00000000020080000200400002008B5074A7B
:100C0000136843F010031360032000F04FF80E2028
:100C1000FFF7CEFF01F0F0FA002008BD00200240EF
:100C2000034A1168034B1B780B441360704700BFE5
:100C3000E006002000000020014B1868704700BF4C
:100C4000E0060020002808DB0901C9B200F160407D
:100C500000F5614080F80013704700F00F000901B3
:100C6000C9B2014B1954704714ED00E000B500F013
:100C70000700C0F1070CBCF1040F28BF4FF0040CB3
:100C8000031D062B0FD9C31E4FF0FF3E0EFA0CF0CA
:100C900021EA000199400EFA03FE22EA0E0241EA1F
:100CA00002005DF804FB0023EEE70000074AD3686A
:100CB00023F4E0631B041B0C000200F4E060034318
:100CC00043F0BF6343F40033D360704700ED00E0AE
:100CD00010B50446054BD868C0F30220FFF7C6FFE5
:100CE00001462046FFF7AEFF10BD00BF00ED00E05B
:100CF000002807DB00F01F02400901239340024A4D
:100D000042F82030704700BF00E100E00138B0F148
:100D1000807F0BD24FF0E0235861054AF02182F822
:100D200023100020986107221A6170470120704744
:100D300000ED00E060B310B402460168154B0B44AF
:100D40001548A0FB03031B099B001364134BD363DB
:100D5000022382F82130086820F47F5020F0300010
:100D6000536894682343D468234314692343546924
:100D7000234394692343D469234303430B60002036
:100D80009063012382F8213082F8200010BC704764
:100D900001207047F8FFFDBFCDCCCCCC0000024055
:100DA000034690F82120D2B2022A06D004228263A0
:100DB000002280F820200120704701680A6822F094
:100DC0000E020A6001680A6822F001020A60026CE1
:100DD000C06B012101FA02F2426083F82110002069
:100DE00083F820007047000008B590F82130DBB28E
:100DF000022B03D004238363012008BD026813681B
:100E000023F00E0313600268136823F001031360DC
:100E10000368194A934214D0143293421FD01432FB
:100E200093421ED0143293421ED0143293421ED0ED
:100E30001432934202D04FF0807203E04FF48012DC
:100E400000E001220D4B5A60012380F8213000237D
:100E500080F82030436B6BB198470020CDE710221B
:100E6000F0E74FF48072EDE74FF48052EAE74FF479
:100E70008032E7E70020C0E708000240000002409F
:100E800038B5C36B1A6804682568016C04238B406D
:100E9000134235D015F0040F32D0236813F0200F21
:100EA00003D1236823F0040323600368434A934279
:100EB00014D01432934218D01432934217D0143203
:100EC000934217D01432934217D01432934202D077
:100ED0004FF0806203E04FF4800200E00422384BC0
:100EE0005A60C36A03B1984738BD4022F7E74FF410
:100EF0008062F4E74FF48042F1E74FF48022EEE79E
:100F000002238B4013423CD015F0020F39D02368E6
:100F100013F0200F06D1236823F00A032360012376
:100F200080F821300368254A934214D0143293424A
:100F30001CD0143293421BD0143293421BD0143273
:100F400093421BD01432934202D04FF0007203E060
:100F50004FF4001200E00222194B5A60002380F87F
:100F60002030836A002BBFD09847BDE72022F3E7EB
:100F70004FF40072F0E74FF40052EDE74FF4003207
:100F8000EAE708238B401342AED015F0080FABD030
:100F9000236823F00E032360026CC16B012303FA64
:100FA00002F24A60836380F82130002380F8203009
:100FB000036B002B98D0984796E700BF08000240CB
:100FC0000000024070B582B00024A446A2E07E4D2D
:100FD000AB4210D007D97D4DAB420CD005F5803522
:100FE000AB4208D013E0A5F58015AB4203D005F560
:100FF0007025AB4207D18B68002B55D0012B4ED00A
:101000004261082403E0A5F58015AB42F3D0BEF1A0
:10101000FF0F4BD806464FEA8C0233680F259540E8
:1010200023EA050304FA02F2134333604B6813F01A
:10103000805F6DD0664B9A6942F001029A619B69AC
:1010400003F001030193019B4FEA9C02951C614B45
:1010500053F825600CF00305AD000F23AB4026EAE2
:1010600003065D4B984228D003F58063984200F058
:101070008D8003F58063984200F08A8003F58063D9
:10108000984218D0042319E0CC68C0E7CC68043437
:10109000BDE7CC680834BAE7CC680C34B7E7026126
:1010A0000824B4E70024B2E70424B0E7061DACF13D
:1010B00008029200B1E7032300E00023AB40334372
:1010C0000232444D45F822304B6813F4801F61D042
:1010D000424A936843EA0E0393604B6813F4001F7F
:1010E0005ED03E4AD36843EA0E03D3604B6813F4E4
:1010F000003F5BD0394A536843EA0E0353604B68A4
:1011000013F4803F58D0354A136843EA0E03136046
:101110000CF1010C0B6833FA0CF253D0012202FAE5
:101120000CF203EA020E32EA0303F1D14B68122BF0
:101130003FF64DAF122B3FF66AAF01A555F823F0ED
:10114000F70F00088910000893100008A510000888
:101150000F1000080F1000080F1000080F100008F3
:101160000F1000080F1000080F1000080F100008E3
:101170000F1000080F1000080F1000080F100008D3
:101180000F1000088D10000899100008012395E742
:10119000022393E7114A936823EA0E0393609CE7C6
:1011A0000E4AD36823EA0E03D3609FE70B4A5368C5
:1011B00023EA0E035360A2E7084A136823EA0E03EA
:1011C0001360A5E702B070BD0000221000003110CE
:1011D00000100240000001400008014000040140EE
:1011E0000AB10161704709040161704782B0084B80
:1011F0001B68084AA2FB03235B0A00FB03F301936D
:1012000000BF019B5A1E0192002BF9D102B070471A
:1012100008000020D34D6210002800F0F18170B565
:1012200082B00446036813F0010F2CD0994B5B6821
:1012300003F00C03042B1DD0964B5B6803F00C03EA
:10124000082B12D06368B3F5803F41D0002B55D1F5
:1012500003F1804303F504331A6822F480321A60E4
:101260001A6822F480221A6037E08A4B5B6813F414
:10127000803FE7D0874B1B6813F4003F03D06368BF
:10128000002B00F0BF81236813F0020F75D0814B53
:101290005B6813F00C0F5FD07E4B5B6803F00C03B0
:1012A000082B54D02369002B00F08A807A4B01224E
:1012B0001A60FFF7C1FC0546764B1B6813F0020F5E
:1012C00075D1FFF7B9FC401B0228F5D903209EE138
:1012D000704A136843F480331360636843B3FFF7C5
:1012E000ABFC05466B4B1B6813F4003FCBD1FFF7FB
:1012F000A3FC401B6428F5D9032088E1B3F5A02F97
:1013000009D0644B1A6822F480321A601A6822F4F9
:1013100080221A60E1E703F18043A3F53C331A68A9
:1013200042F480221A601A6842F480321A60D4E7CC
:10133000FFF782FC0546574B1B6813F4003FA2D011
:10134000FFF77AFC401B6428F5D903205FE1514B7D
:101350005B6813F4803FA5D14E4B1B6813F0020F5E
:1013600003D02369012B40F04F814A4A136823F0D0
:10137000F803616943EAC1031360236813F0080F9F
:1013800033D0A369002B5CD0434B0122C3F88024E7
:10139000FFF752FC05463F4B5B6A13F0020F21D169
:1013A000FFF74AFC401B0228F5D903202FE1394AF8
:1013B000136823F0F803616943EAC1031360DCE7B3
:1013C000354B00221A60FFF737FC0546314B1B688E
:1013D00013F0020FD1D0FFF72FFC401B0228F5D9E4
:1013E000032014E10120FFF701FF236813F0040F2D
:1013F00000F09680274BDB6913F0805F34D1254BDA
:10140000DA6942F08052DA61DB6903F080530193BC
:10141000019B0125214B1B6813F4807F26D0E368D4
:10142000012B3DD0002B53D103F1804303F504334E
:101430001A6A22F001021A621A6A22F004021A627F
:1014400033E0154B0022C3F88024FFF7F5FB054677
:10145000104B5B6A13F0020FC7D0FFF7EDFB401B88
:101460000228F5D90320D2E00025D3E70B4A136800
:1014700043F480731360FFF7DFFB0646074B1B68DE
:1014800013F4807FCBD1FFF7D7FB801B6428F5D9FD
:101490000320BCE000100240000042420070004007
:1014A0005F4A136A43F001031362E36833B3FFF743
:1014B000C3FB06465A4B1B6A13F0020F2FD1FFF7EE
:1014C000BBFB801B41F288339842F3D903209EE096
:1014D000052B09D0524B1A6A22F001021A621A6ACD
:1014E00022F004021A62E0E74D4B1A6A42F004024D
:1014F0001A621A6A42F001021A62D6E7FFF79CFBF1
:101500000646474B1B6A13F0020F08D0FFF794FB07
:10151000801B41F288339842F3D9032077E0E5B984
:10152000E369002B72D03E4A526802F00C02082A8E
:1015300056D0022B17D03B4B00221A66FFF77CFBDC
:101540000446374B1B6813F0007F47D0FFF774FB4E
:10155000001B0228F5D9032059E0314AD36923F052
:101560008053D361DCE72F4B00221A66FFF764FB40
:1015700005462B4B1B6813F0007F06D0FFF75CFB82
:10158000401B0228F5D9032041E0236AB3F5803FD0
:101590001AD023494B6823F47413226A606A024309
:1015A00013434B601F4B01221A66FFF745FB0446AD
:1015B0001B4B1B6813F0007F0ED1FFF73DFB001B98
:1015C0000228F5D9032022E0154A536823F400339A
:1015D000A1680B435360DCE7002018E0002016E010
:1015E000012B16D00E4B5B6803F48031226A9142C6
:1015F00011D103F47013626A93420ED1002006E009
:1016000001207047012002E0012000E0002002B02C
:1016100070BD0120FBE70120F9E70120F7E700BFDB
:1016200000100240000042420F4B5B6803F00C02C6
:10163000082A01D00D487047C3F383420C49885CE7
:1016400013F4803F0BD0084B5B68C3F34043094A57
:10165000D35C064A02FB00F0B0FBF3F07047064B88
:1016600003FB00F0704700BF0010024000127A0038
:101670007C8900087889000800093D00002800F0F6
:10168000A08070B50D460446524B1B6803F007035B
:101690008B420BD24F4A136823F007030B431360AE
:1016A000136803F007038B4240F08D80236813F02A
:1016B000020F17D013F0040F04D0474A536843F4C5
:1016C000E0635360236813F0080F04D0424A536864
:1016D00043F460535360404A536823F0F003A16819
:1016E0000B435360236813F0010F31D06368012B63
:1016F00020D0022B25D0384A126812F0020F64D095
:1017000035494A6822F0030213434B60FFF794FA0D
:101710000646314B5B6803F00C036268B3EB820F43
:1017200016D0FFF789FA801B41F288339842F0D92E
:10173000032045E0284A126812F4003FE0D101205E
:101740003EE0254A126812F0007FD9D1012037E02F
:10175000204B1B6803F00703AB420AD91D4A1368EC
:1017600023F007032B431360136803F00703AB4216
:101770002DD1236813F0040F06D0174A536823F4C1
:10178000E063E1680B435360236813F0080F07D050
:10179000114A536823F46053216943EAC10353603B
:1017A000FFF742FF0C4B5B68C3F303130B4AD35C98
:1017B000D8400B4B18600B4B1868FFF7F9F9002065
:1017C00070BD012070470120FAE70120F8E70120F1
:1017D000F6E700BF00200240001002409889000890
:1017E0000800002004000020014B1868704700BF6B
:1017F0000800002008B5FFF7F7FF044B5B68C3F350
:101800000223034AD35CD84008BD00BF0010024049
:101810009089000808B5FFF7E7FF044B5B68C3F346
:10182000C223034AD35CD84008BD00BF0010024069
:101830009089000803681B4A90420AD0B0F1804F9B
:1018400007D0A2F59432904203D002F58062904214
:1018500003D123F070034A681343124A90420AD01E
:10186000B0F1804F07D0A2F59432904203D002F538
:101870008062904203D123F44073CA68134323F07B
:1018800080034A69134303608B68C3620B688362F9
:10189000044B984202D00123436170470B690363F4
:1018A000F9E700BF002C0140002856D070B50D4666
:1018B000044690F83D30002B4AD0022384F83D3096
:1018C0002268936823F4804323F007039360214642
:1018D00051F8040BFFF7AEFF21688B688A690E6A26
:1018E0002868184322F4407222F00302AB68D5F84E
:1018F00018C043EA0C23134323F47C4323F0FC0376
:10190000EA68D5F81CC042EA0C221A432B6A1B0372
:10191000D5F810C043EA0C13134326F022066A6878
:101920006D6942EA05123243886021688B61236841
:101930001A62012384F8463084F83E3084F83F3040
:1019400084F8423084F8433084F83D30002070BD84
:1019500080F83C3000F028FDAFE70120704701F02F
:101960001F014FF0010C0CFA01FC036A23EA0C037F
:101970000362036A8A4013430362704738B5044622
:1019800090F83E00C0B294F83F3094F84220D2B2B2
:1019900094F843C00D46B1B9012849D1012A48D174
:1019A000022384F83E3084F842307DB3042D39D0D0
:1019B000012200212068FFF7D2FF012204212068C4
:1019C000FFF7CDFF27E0DBB25FFA8CFC042912D0D1
:1019D000012833D1012B2CD1012A31D1BCF1010FC7
:1019E00030D1022384F83E3084F83F3084F842300E
:1019F00084F84330D9E7012B1CD1BCF1010F1BD176
:101A0000022384F83F3084F84330CEE701220021DE
:101A10002068FFF7A4FF2268136843F001031360F6
:101A2000002006E0012204212068FFF798FFF2E77A
:101A3000012038BD0120FCE71846FAE70120F8E74D
:101A40001846F6E71046F4E790F83C20012A2CD01F
:101A500010B40346012280F83C20022280F83D2089
:101A600002685068946820F0700C086840EA0C0026
:101A700050601A680E4882420AD0B2F1804F07D0F7
:101A8000A0F59430824203D000F58060824204D1F8
:101A900024F08004496821439160012283F83D20AD
:101AA000002083F83C0010BC70470220704700BF44
:101AB000002C0140026802F10C0353E8003F23F4BC
:101AC00090730C3242E800310029F3D1026802F130
:101AD000140353E8003F23F00103143242E80031BD
:101AE0000029F3D1036B012B05D0202380F842306D
:101AF000002303637047026802F10C0353E8003FC0
:101B000023F010030C3242E800310029F3D1ECE756
:101B100090F84130DBB2212B01D00220704783685E
:101B2000B3F5805F17D0036A5A1C02621A78036803
:101B30005A60C38C9BB2013B9BB2C3844BB9026811
:101B4000D36823F08003D3600268D36843F0400376
:101B5000D360002070470369002BE4D1036A1B881F
:101B60000268C3F308035360036A02330362E0E7C9
:101B700010B504460268136923F44053C1680B434F
:101B8000136183680269134342691A430168CB6891
:101B900023F4B05323F00C031343CB600268536962
:101BA00023F4407381690B4353610268134B9A42DB
:101BB00020D0FFF71FFE024602EB820202EB8202F8
:101BC00063689B00B2FBF3F20D48A0FB02314909A8
:101BD000642303FB11231B013233A0FB03035B09C6
:101BE00003F0F00202EB011203F00F03216813442B
:101BF0008B6010BDFFF70EFE0246DDE700380140A6
:101C00001F85EB5160B310B5044690F8413013B313
:101C1000242384F841302268D36823F40053D3602E
:101C20002046FFF7A5FF2268136923F49043136150
:101C30002268536923F02A0353612268D36843F46E
:101C40000053D36000206064202384F8413084F87E
:101C50004230606310BD80F8403000F0EDFBD7E704
:101C60000120704790F84130DBB2202B10D189B1B0
:101C700092B101628284C28400234364212280F8ED
:101C800041200168CA6842F08002CA601846704765
:101C9000022070470120704701207047704708B547
:101CA0000168CA6822F04002CA60202280F8412000
:101CB000FFF7F4FF002008BD7047704708B5406A81
:101CC0000023C385C384FFF7F8FF08BD704790F871
:101CD0004230DBB2222B69D18368B3F5805F4FD0ED
:101CE000826AB3F5805F04D0002B56D10369002BC4
:101CF00053D103685B681370836A01338362C38DB9
:101D00009BB2013B9BB2C385002B51D100B583B080
:101D10000268D36823F02003D3600268D36823F4F9
:101D20008073D3600268536923F001035361202359
:101D300080F8423000234363036B012B33D100232F
:101D40000363026802F10C0353E8003F23F0100321
:101D50000C3242E800310029F3D103681A6812F00E
:101D6000100F06D0002201921A6801925B6801935D
:101D7000019B818DFFF7AAFF002003B05DF804FBF3
:101D80000269002AACD1826A03685B68C3F3080366
:101D90001380836A02338362B1E703685B6803F0F0
:101DA0007F031370A8E7FFF787FFE5E7022070477E
:101DB0000020704710B582B0044602681368D068EE
:101DC000516913F00F0F09D113F0200F0CD010F050
:101DD000200F09D02046FFF77AFF16E011F001012D
:101DE00015D110F4907F12D1216B012979D013F015
:101DF000800F03D010F0800F40F0138113F0400FDC
:101E000003D010F0400F40F0108102B010BD13F06D
:101E1000010F06D010F4807F03D0626C42F0010203
:101E2000626413F0040F04D019B1626C42F0020234
:101E3000626413F0020F04D019B1626C42F0040224
:101E4000626413F0080F07D010F0200F00D119B111
:101E5000626C42F008026264626C002AD5D013F012
:101E6000200F02D010F0200F29D123685B6903F006
:101E70004003626C12F0080F00D163B32046FFF7F5
:101E800019FE23685B6913F0400F20D0226802F12D
:101E9000140353E8003F23F04003143242E80031BA
:101EA0000029F3D1E36B73B1624A5A63E06BFEF72A
:101EB0009BFF0028A9D0E06B436B9847A5E720461D
:101EC000FFF705FFD1E72046FFF7F7FE9DE7204625
:101ED000FFF7F3FE99E72046FFF7EFFE0023636468
:101EE00093E713F0100F82D010F0100F3FF47FAF84
:101EF000002301931368019353680193019B536975
:101F000013F0400F51D0E26B13685B689BB2002B5B
:101F10003FF47BAFA18D99427FF677AFE38593695C
:101F2000202B37D0226802F10C0353E8003F23F442
:101F300080730C3242E800310029F3D1226802F1AB
:101F4000140353E8003F23F00103143242E8003148
:101F50000029F3D1226802F1140353E8003F23F073
:101F60004003143242E800310029F3D1202384F8E1
:101F7000423000232363226802F10C0353E8003F40
:101F800023F010030C3242E800310029F3D1E06B5A
:101F9000FEF706FF02236363A18DE38D9BB2C91A8E
:101FA00089B22046FFF792FE2FE7A18DE38D9BB209
:101FB000C91A89B2E38D9BB2002B3FF426AF0029EA
:101FC0003FF423AF226802F10C0353E8003F23F4EF
:101FD00090730C3242E800300028F3D1226802F1FD
:101FE000140353E8003F23F00103143242E80030A9
:101FF0000028F3D1202384F8423000232363226891
:1020000002F10C0353E8003F23F010030C3242E8C6
:1020100000300028F3D1022363632046FFF756FE09
:10202000F3E62046FFF774FDEFE62046FFF737FEA4
:10203000EBE600BFBD1C000800B583B00E4B5A692B
:1020400042F001025A615B6903F001030193019BB5
:10205000002211460E20FEF73BFE0E20FEF748FE42
:10206000002211460F20FEF733FE0F20FEF740FE40
:1020700003B05DF804FB00BF0010024030B589B02A
:1020800000240494059406940794174B9A6942F02F
:1020900020029A619A6902F020020192019A9A69DB
:1020A00042F008029A619A6902F008020292029ACA
:1020B0009A6942F004029A619B6903F00403039356
:1020C000039B0A4D224604212846FFF789F8042382
:1020D00004930123059306940223079304A9284639
:1020E000FEF770FF09B030BD00100240000C014047
:1020F00072B6FEE700B591B02822002106A802F0D2
:1021000005FB00230193029303930493059301229B
:1021100006924FF4803307930A9202220D920E9397
:102120004FF4E0130F9306A8FFF776F880B90F235A
:10213000019302210291002303934FF480620492E1
:10214000059301A8FFF79AFA20B911B05DF804FBD6
:10215000FFF7CEFFFFF7CCFF00B585B0FEF74EFDD1
:10216000FFF7C8FFFFF78AFFFFF766FF00F04AF9A5
:1021700000F0E8F83C211948FFF700FC0122042197
:102180001748FFF72DF811E0164B1B68002B02DDF6
:10219000013B144A1360134B1A68134901A800F05D
:1021A000EFF982B201A91148FFF75CFD0B4B1A68E9
:1021B000536A0F490B600F4909688B42F6D00D49ED
:1021C0000B60136813F0100FDED0064B1B68632BF7
:1021D000E1DC0133034A1360DDE700BFF4060020B1
:1021E000000C0140E40600208C890008C407002090
:1021F000E8060020EC06002082B00E4B9A6942F0FF
:1022000001029A619A6902F001020092009ADA6969
:1022100042F08052DA61DB6903F080530193019B45
:10222000054A536823F0E06343F00073536002B043
:10223000704700BF0010024000000140FEE7FEE7CB
:10224000FEE7FEE7FEE770477047704708B5FEF708
:10225000E7FC08BD08B50248FEF712FE08BD00BF46
:102260003C07002008B50248FEF70AFE08BD00BF83
:102270008007002008B50248FFF79CFD08BD00BF9D
:10228000C40700200120704708B500F09BF9162311
:1022900003604FF0FF3008BD08B54FF0FF31FFF786
:1022A000F3FFFEE770B50C461646002506E0AFF3D7
:1022B0000080214601F8010B01350C46B542F6DBE2
:1022C000304670BD70B50C461646002504E014F883
:1022D000010BAFF300800135B542F8DB304670BD2D
:1022E0004FF0FF3070474FF400534B6000207047B1
:1022F000012070470020704710B503460C4A0D4975
:102300000D48006840B10C4800680344521A9342DB
:1023100006D8094A136010BD0748084C0460F2E76C
:1023200000F050F90C2303604FF0FF30F3E700BFDB
:102330000050002000040000F0060020200B0020C8
:102340007047000000B58DB02422002103A802F0E0
:10235000DDF90023019302931148124A02604360A1
:1023600083606422C260036143618361012303933C
:102370000593099303A9FFF797FA50B90023019336
:10238000029301A90648FFF75FFB28B90DB05DF87D
:1023900004FBFFF7ADFEF1E7FFF7AAFEF6E700BF8B
:1023A000F4060020002C014000B587B00023029302
:1023B0000393049305930268104B9A4202D007B02E
:1023C0005DF804FB03F564439A6942F400629A6184
:1023D0009A6902F400620092009A9A6942F004023B
:1023E0009A619B6903F004030193019B4FF44073CE
:1023F000029302A90248FEF7E5FDE0E7002C014048
:102400000008014008B50A480A4B03604FF4E13365
:10241000436000238360C36003610C2242618361D7
:10242000C361FFF7EFFB00B908BDFFF761FEFBE7F3
:10243000C407002000380140F0B587B000230293A4
:102440000393049305930268334B9A4201D007B07B
:10245000F0BD044603F558439A6942F480429A61FC
:102460009A6902F480420092009A9A6942F0080246
:102470009A619B6903F008030193019B4023029337
:102480000223039303230593244F02A93846FEF742
:1024900099FD8026029600250395049502A93846E9
:1024A000FEF790FD1E4A536843F0E06343F00403D7
:1024B00053601C481C4B036045608560C660056125
:1024C00045618561C561FEF735FCF0B9154BE363E5
:1024D0005C621648164B0360102343600023836040
:1024E0008022C260036143618361C361FEF722FC05
:1024F00070B90E4BA3635C62002211462520FEF7E3
:10250000E7FB2520FEF7F4FBA1E7FFF7F1FDDDE790
:10251000FFF7EEFDEDE700BF00380140000C014081
:102520000000014080070020580002403C070020C6
:1025300044000240FFF704FF0B480C490C4A0023FB
:1025400002E0D458C4500433C4188C42F9D3094A69
:10255000094C002301E013600432A242FBD302F0D5
:102560004BF9FFF7F9FD704700000020C40600207A
:10257000A48D0008C4060020200B0020FEE7000008
:102580000EB430B504466FF000459CB00B4A1FAB4B
:102590000B49059253F8042B086802A9CDE90134D0
:1025A00004950795069400F013F80022029B1A7018
:1025B0001CB0BDE8304003B0704700BF0802FFFF09
:1025C00090050020014B1868704700BF900500205F
:1025D0002DE9F04FDDB00C4691460C910E938346E9
:1025E00002F054F9036818461A9303F061FA03469F
:1025F000082200212CA8189302F088F8A3891A0653
:1026000003D52369002B00F08F87002300249E460A
:10261000CDE93133002333AA9046CDE91434CDE916
:102620001CEE3092CDF864E0CDF86CE0CDF85CE0C3
:10263000CDF828E0CDF848E0CDF820B0CDF81890DE
:10264000069E089D6F4B2CAFD3F8E44002F018F9BA
:102650003246034628A928460097A047002800F0E4
:102660009F80C0F29580289B252B01D00644E9E786
:10267000069B0546F71A40F0978000224FF0FF3383
:10268000914609937378741C8DF897200B921F461E
:102690000134A7F120035A2B00F2B680DFE813F0D3
:1026A000F202B400B400EE02B400B400B400CE02F2
:1026B000B400B4006A004302B4003F020003B40057
:1026C000FC025B005B005B005B005B005B005B008F
:1026D0005B005B00B400B400B400B400B400B4000C
:1026E000B4003701B400C3011A03370137013701C1
:1026F000B400B400B400B400CA02B400B40048028C
:10270000B400B400B400E601B400B802B400B400F0
:102710000507B400B400B400B400B400B400B400C1
:10272000B4003701B400C301170237013701370184
:10273000790217027400B4009202B40083022707E2
:102740009C027400B400E60172000107B400B400FA
:102750002A07B40072000022A7F1300314F8017BAD
:1027600002EB820203EB4202A7F13003092BF5D9F9
:102770000B928EE70E9B53F8042B002A0B920E93BC
:10278000C0F2CA81237882E7237849F020097EE7E6
:10279000082200212CA801F0B9FF0120064451E7CE
:1027A000069B0546F71A12D0069BC8E90037329BF4
:1027B0003B443293319B0133072B319318DC08F1F2
:1027C00008080A9B3B440A93002D7FF456AF329BC6
:1027D000DDF820B0002B41F0F6810C9B9B8903F0C3
:1027E0004003002B41F0B2830A985DB0BDE8F08F42
:1027F0000C99089830AA03F0F1FB0028EDD10DF1F7
:10280000CC08DEE7240400200F94002FDFD04FF027
:10281000010B002243AB8DF80C71CDF81CB0069370
:10282000CDE910228DF897200D920992139219F09C
:10283000020302D007990231079119F08404329DF6
:1028400005D10B9907980E1A002E00F3A88082B1CB
:102850000122C8F80420319A013501320DF19701A7
:10286000072A32953192C8F8001000F3178408F156
:1028700008087BB10223C8F80430319B02350133CC
:1028800026AA072B32953193C8F8002000F3F9836C
:1028900008F10808802C00F0BB82099BA3EB0B0613
:1028A000002E00F3FB8219F4807F40F02B82069B00
:1028B0005D44C8F80030319BC8F804B00133072BE1
:1028C0003295319300F3618308F1080819F0040F81
:1028D00005D00B9B079A9C1A002C00F3EE83DDE9D0
:1028E0000A3207998A42ACBF9B185B180A93002DE5
:1028F00040F00C83002331930D9B1BB10D99089878
:1029000003F098F90DF1CC080F9B069398E60E9B07
:102910000F94073323F00703F3E802450E9325F0E5
:10292000004321932094DDE920AB4FF0FF32504665
:102930005946B24BCDE91445FEF7B6F8002840F0F1
:1029400057854FF0FF3250465946AC4BFEF78EF894
:10295000002840F04D850022002320462946FEF73E
:102960007BF8002841F04F809DF8972000214FF020
:10297000030BA34CA34B29F080090D91CDF81CB09B
:10298000472FC8BF1C46CDE9101106940991139139
:10299000002A3FF44CAF079B0133079347E7102E03
:1029A000319A41F37982DFF860C241462846B84641
:1029B000CDE91E344FF0100A6746089D0C9CCDF8F7
:1029C00058C004E0103E102E01F1080115DD01325F
:1029D0001030072AC1E9007ACDE93120F2DD214625
:1029E000284630AA03F0FAFA002840F0F686DDE91E
:1029F0003120103E102E33A9E9DC4746DDE91E34B4
:102A000088460546013216993544072ACDE9312515
:102A1000C8F80010C8F8046000F3CE869DF897202F
:102A200008F1080813E70E9B432F0F9403F10405E8
:102A300003D019F0100F00F06185082200212EA8A4
:102A400001F064FE0E9A43AC2146126808982EAB42
:102A500001F0ACFEB0F1FF3F834601F0728220EA44
:102A6000E073079300220E950694D9E600230E9E8C
:102A70008DF8973056F8043B0F940693002B00F026
:102A80006285532F00F0C38619F01003109340F0B5
:102A9000BE86099B5C1C01F0A1801A46109906981D
:102AA00002F0BAFF0D90002801F018830D9B069AE2
:102AB0007327A3EB020B109B2BEAEB719DF8972079
:102AC0000E9609930791139311930D9360E719F0F4
:102AD000200F0F9400F005810E9B073323F00703AE
:102AE0001846596850F8083B0A460E900029C0F273
:102AF00031840999013100F0B48253EA020129F0CE
:102B0000800B40F0AF82099A002A40F0B0825CABA3
:102B1000D946069393466EE10B9B5B420B93237859
:102B200049F00409B3E52B238DF897302378AEE5FF
:102B30000F9449F0100919F0200200F0E7830E9B72
:102B4000073323F0070319465A6851F8083B0E91E2
:102B5000002129F4806B0020099C8DF89700601CEF
:102B600000F02C8153EA02002BF0800940F025810F
:102B7000002C40F03486002940F0F6831BF0010B56
:102B800000F0198430238DF86F310DF26F13069326
:102B900031E12378682B03BF637849F4007901346D
:102BA00049F0400973E519F0200F0F9400F00E84EE
:102BB0000E9B0A9A1B681A60D2175A600E9B043348
:102BC0000E93A1E623786C2B03BF637849F02009AC
:102BD000013449F010095AE547F630030E9A0B48C4
:102BE000ADF8983052F8043B02210E92782700226B
:102BF0000F9449F0020B1990ADE700BFFFFFEF7F84
:102C0000A8890008AC890008FC890008B889000878
:102C10000F9449F0100B1BF0200200F086830E9BEE
:102C20000121073323F0070318465A6850F8083B80
:102C30000E9090E7237849F0080928E5089D28467A
:102C400001F024FE436818461C9302F031FF03464E
:102C500028461D931D4601F019FE83681793002D29
:102C60003FF490AD179A2378002A3FF410AD127804
:102C7000002A3FF40CAD49F4806908E5237849F057
:102C8000010904E59DF897202378002A7FF4FFAC22
:102C900020228DF89720FAE4237849F08009F6E4A1
:102CA000224612F8017B2A2F01F02782A7F1300378
:102CB000092B144698BF002201F2F28014F8017B20
:102CC00002EB820203EB4202A7F13003092BF5D994
:102CD0000992DEE449F0100919F0200F0F947FF4F7
:102CE000FBAE0E9A19F0100F52F8043B0E9240F012
:102CF000698319F0400F00F0618343F3C03211463D
:102D00001BB2F3E6652F40F34F81DDE91401002289
:102D10000023FDF797FE002800F00C820123C8F87D
:102D20000430319B9E4A01330135072B3295319394
:102D3000C8F8002000F35E8508F10808279B129A66
:102D4000934280F23383189B1A9A1D44C8E90023EA
:102D5000319B32950133072B319300F3D98308F16E
:102D60000808129B5C1E002C7FF7B0AD102C319B25
:102D700040F3A3858B4F1026DDF820B0DDF830A09E
:102D8000169705E008F10808103C102C40F39785D1
:102D900001331035072BC8E90076CDE93135F1DD77
:102DA0005146584630AA03F019F9002840F09382A2
:102DB000DDE931350DF1CC08E6E7CB46012900F01D
:102DC0005181022900F039815CAC03F00701DB0876
:102DD00043EA4273D208303153EA0205204604F830
:102DE000011DF2D11BF0010F069440F025825CAB6F
:102DF000D946A3EB040B099A00235A45B8BF5A469B
:102E0000CDE9103307920D939DF897201393BFE5FA
:102E10000B9B079A9E1A002E7FF73FAD102E319B19
:102E200041F383805F484246294610240546DDF879
:102E300020A0DDF83080169004E0103E102E02F144
:102E4000080215DD01331031072BC2E90054CDE92A
:102E50003131F2DD4146504630AA03F0BFF8002878
:102E600040F02785DDE93131103E102E33AAE9DC30
:102E700090460D460133169A3544072BCDE931357E
:102E8000C8F80020C8F8046000F33B85099B08F1EE
:102E90000808A3EB0B06002E7FF705AD414A102E64
:102EA000319B169223DD2A464FF0100A089C0C9D98
:102EB00004E0103E102E08F1080817DD01333949EF
:102EC0001032072BC8E9001ACDE93132F1DD29466D
:102ED000204630AA03F082F8002840F0FB81DDE9AB
:102EE0003132103E102E0DF1CC08E7DC15460133CF
:102EF000169A3544072BCDE93135C8F80020C8F8BB
:102F0000046000F3F68108F10808CCE40C990898F5
:102F100030AA03F063F800283FF4ECACDDF820B0F1
:102F2000D9E10123C8F80430319B1D490133013533
:102F3000072B32953193C8F8001000F3798508F11A
:102F40000808002A40F0F084129A09F001031343A4
:102F50003FF4BCAC189B1A9A1D44C8E90023319B6E
:102F600032950133072B319300F3638608F108088B
:102F7000069A0133C8F80020129A072B1544CDE9B0
:102F80003135C8F804207FF79FAC0C99089830AA17
:102F900003F024F80028C1D1329D0DF1CC0895E44E
:102FA000E8890008EC890008129B319E012B069BE2
:102FB00005F10105C8F800304FF0010306F10106E4
:102FC000CDE9316508F10807C8F8043040F34281C3
:102FD000072E00F3CE81189B01361A9A1D44072E46
:102FE000C7E90023CDE9316500F3CF810837129B93
:102FF0000022DDE9140103F1FF380023FDF722FD73
:10300000002840F03A81069C013601344544072EE1
:10301000CDE931653C60C7F8048000F322810837B0
:103020001B9B01361D447B60072E2AABCDE9316521
:103030003B60AADC07F1080848E4199C5CA903F08E
:103040000F00205C1B0943EA0273120901F8010D0D
:1030500053EA0200F3D15CABD9460691A3EB010B16
:10306000C9E6CB460A2B72F1000180F0438330336E
:103070008DF86F310DF26F13D94606934FF0010BA7
:10308000B9E60C99089830AA02F0A8FF00287FF44E
:1030900045AF329D0DF1CC08FFF7FCBB0C990898A9
:1030A00030AA169302F09AFF00287FF437AF329DC2
:1030B000169B0DF1CC08FFF7DCBB102C319B40F3C5
:1030C0002687B84F1026DDF82090DDF830A016973F
:1030D00004E0103C102C08F1080816DD013310350F
:1030E000072BC8E90076CDE93135F2DD5146484677
:1030F00030AA02F073FF002840F0DD83DDE93135AE
:10310000103C102C0DF1CC08E8DC0133169A254454
:10311000072BC8E90024CDE931357FF7E0AB0C99E6
:10312000089830AA02F05AFF00287FF4F7AE329DCB
:10313000FFF7D5BB279A002A7FF7F3AE109F129BAB
:10314000069A9F42A8BF1F46002F02EB030B0BDD20
:10315000319B3D440133072BC8E900273295319359
:1031600000F3368608F10808109E002FA8BFF61B52
:10317000002E00F3F981DDF818A0109B19F4806F80
:103180009A4440F01982279C129B9C4203DB19F061
:10319000010F00F06A84189B1A9A1D44C8E90023A5
:1031A000319B32950133072B319300F3678608F189
:1031B0000808129BABEB0A061C1BA642A8BF2646BA
:1031C000002E0DDD319B35440133072BC8F800A0DC
:1031D000C8F804603295319300F36D8608F1080851
:1031E000002EA8BFA41B002C7FF770AB102C319BC6
:1031F00040F363836C4F1026DDF820B0DDF830A07B
:10320000169705E008F10808103C102C40F357838E
:1032100001331035072BC8E90076CDE93135F1DDF2
:103220005146584630AA02F0D9FE002853D1DDE9B4
:1032300031350DF1CC08E7E7302900F04E8330231B
:10324000069A023802F8013C5CABD9460690A3EB23
:10325000000BD0E519F0010F7FF4BAAE072E7FF70F
:10326000DFAE0C99089830AA02F0B8FE00287FF46F
:1032700055AEDDE9316533AFD2E6129B012B7FF706
:10328000CFAE112B40F36A87474BCDF8189010242E
:103290009946DDF820A0DDF830B0169306E0083737
:1032A000A8F11008B8F1100F40F372830136103501
:1032B000072EC7E90094CDE93165F0DD5946504647
:1032C00030AA02F08BFE002840F0F382DDE9316580
:1032D00033AFE5E7A3460D9B002B3FF47EAA58468B
:1032E0000D9902F0A7FC0C9B9B8903F04003FFF7AC
:1032F00078BA0C99089830AA02F070FE00287FF482
:103300000DAE329D0DF1CC08FFF7CDBA0E9951F8F4
:10331000043B0E9119F010017FF41AAC19F0400033
:1033200000F04A830A469BB212E40E9951F8043B1E
:103330000E911BF010010BD11BF0400003D00A4688
:103340009BB2012107E41BF400721CBF0246DBB2F2
:10335000012100E45B42CB464FF02D004FF001010C
:1033600062EB4202FFF7F8BB5CABDDF824B00693DA
:1033700041E50C99089830AA02F030FE00287FF44D
:10338000CDADDDE9316533AF25E60C99089830AA5B
:1033900002F024FE00287FF4C1ADDDE9316533AFD2
:1033A00025E600BFFC890008EC89000819F0010F30
:1033B0003FF48CAAC7E45CAB06931CE519F4007FCC
:1033C00040F06283DA171146FFF790BB19F0100F37
:1033D00040F0A48219F0400F40F0508319F4007FB0
:1033E00000F09C820E9B0A9A1B681A70FFF7E6BBDE
:1033F000DDE9140102460B46FDF756FB002840F0BC
:103400004286612F00F0FA84412F00F06485099B09
:10341000013300F01C8427F02003472B04D1099BC3
:10342000002B08BF0123099349F48070DDE91412D1
:10343000002A4FF000031690CDF84490C0F2148596
:10344000CDE922121E930D93A7F14103252B00F223
:103450002383DFE813F00704210321032103000481
:103460000404210321032103210321032103210358
:10347000210321032103210321032103210321032C
:10348000210321032103210321032103210321031C
:10349000210321032103210321032103210300042C
:1034A0000404CB460F94FFF7B6BBBE4B0F941993A1
:1034B00019F0200200F004810E9B073323F007036C
:1034C00019465A6851F8083B0E9119F0010F09D0BE
:1034D00053EA020106D030218DF8997049F00209B3
:1034E0008DF89810022129F4806BFFF734BB0F94FC
:1034F000FFF721BBAC4B0F941993D9E70E9B43AC5C
:103500001B688DF80C3101239B460793FFF7AABA7D
:103510000C99089830AA02F061FD00287FF4FEACF7
:10352000329D0DF1CC081CE44021584600F02CFEE1
:103530000C9B18601861002800F01C8640230C9A30
:103540005361FFF762B8099B069A062B28BF062332
:1035500096489B46CDE9102207930E9609920D924C
:1035600006901392FFF714BA102E319B40F3E185B9
:103570008F492A4610270D46089CDDF830A0169189
:1035800005E008F10808103E102E40F32B820133AD
:103590001032072BC8E90057CDE93132F1DD514631
:1035A000204630AA02F01AFD00287FF493AEDDE930
:1035B00031320DF1CC08E6E7119B42462946CDF8A1
:1035C00018B05546CDF82490794FDDF84C90DDF8D1
:1035D0007480DDF85CA0DDF820B083B3B9F1000F92
:1035E00000F0028109F1FF3931981C9B0130414400
:1035F0000728C2E900383291319070DC0832069B0E
:103600009AF800005E1B8642A8BF0646002E0CDD1D
:103610003198314401300728C2E900563291319087
:1036200000F362819AF800000832002EB4BF04460D
:10363000841B002C13DC0544119B002BCED1B9F167
:10364000000FCFD1CDF85CA0AA46DDF818B09046A7
:10365000DA450D4628BFDA46DDF8249093E5102CB4
:10366000C8BF3E46319806DC00F044BD103C102C2B
:1036700002F1080216DD1023013010310728CDE9D0
:10368000310117605360F1DD58460C9930AA02F001
:10369000A5FC00287FF41FAEDDE93101103C102CA1
:1036A00033AAE8DC013021440728CDE93101166056
:1036B000546000F37F839AF8000008320544BBE7AA
:1036C0000E9951F8043B0E9119F010017FF4FDAEF4
:1036D00019F0400000F06A810A469BB2F5E65846B0
:1036E0000C9930AA02F07AFC00287FF4F4AD3299EC
:1036F00033AA84E70BF48061CDE9067B4FF0000E1E
:103700004FF0CC3A05240F46DFF8A8900DF5B87CB1
:10371000CDF8348006E00A2B72F1000235D343461F
:103720002A46B446991841F10001A9FB010525F08C
:10373000030000EB9500091A581A0AFB00F562F124
:10374000000BA0FB098009FB0B5508F0010B054499
:10375000ABFB040B40184FEA5808303048EAC578F4
:103760000EF1010E0CF1FF360CF8010C6D08002F64
:10377000D1D0179909788E45CDD1BEF1FF0FCAD0AF
:103780000A2B72F1000280F04381DDE9067B5CAB1D
:10379000D946DDF83480CDF848E00696A3EB060B59
:1037A000FFF729BBCC890008B8890008E089000828
:1037B000EC890008CDCCCCCC0C99089830AA169393
:1037C00002F00CFC00287FF4A9AB9DF89720329DF5
:1037D000169B0DF1CC08FFF73AB8AB467BE5012903
:1037E000CB467FF4EEAA42E4119B0AF1FF3A013B7B
:1037F0001193F9E60C99089830AA02F0EFFB002823
:103800007FF48CAB329D0DF1CC08FFF797BA069B85
:103810002EAC082200212046299300F077FFDDF826
:1038200024A0BAF1FF3F00F0CE8000250797AB46F9
:10383000089F0DE02346384643A900F0B7FF431C1C
:10384000584400F07E83504507DC00F03584834601
:10385000299B5A590435002AECD1079FBBF1000F70
:1038600000F0F480BBF1630F00F3CA8100230D93D5
:1038700043AB069308220021204600F047FF5B4639
:1038800006990898009429AA01F024F8834540F08D
:10389000688400232BEAEB720792069ACDE9103375
:1038A00002F80B309DF897200E9609931393FFF7BB
:1038B0006FB8D3460FE5CB460DE5764A1692169AB9
:1038C00001332544072BC8F80020C8F80440CDE98F
:1038D00031357EF7F9AFFFF758BB069A5CABD94696
:1038E000A3EB020BFFF787BA58460C9930AA02F0F7
:1038F00075FB00287FF4EFAC9AF80000329933AAE8
:1039000093E60C99089830AA02F068FB00287FF42F
:1039100005AB329D0DF1CC08FEF7BFBF0E9B0A9A96
:103920001B681A60FFF74AB9189B1A991D44C8E929
:103930000013319B32950133072B319300F37981CA
:1039400008F10808002ABFF613AB5642103280F285
:103950000283504C1027169405E008F10808103E29
:10396000102E40F3FA8201331035072BC8E90047C7
:10397000CDE93135F1DD0C99089830AA02F02EFB23
:1039800000287FF4CBAADDE931350DF1CC08E6E75C
:10399000DDF818900136169B4544072ECDE93165B8
:1039A0003B60C7F804807FF73AAB5AE419F4007221
:1039B0001CBF0246DBB288E519F400721CBF024648
:1039C000DBB2FFF7C5B8002308981946009429AA6E
:1039D00000F080FFB0F1FF3F834600F0B282069B0B
:1039E00029933BE715460133169A3544072BCDE959
:1039F0003135C8F80020C8F8046000F30D8108F1E3
:103A00000808FFF7B8BB2D228DF89720FEF7AEBF50
:103A10001D9B1C99F61A1A46304602F009FA179AAD
:103A2000537813B11346013317934FF0000E76E627
:103A30000C99089830AA02F0D1FA00287FF46EAAF7
:103A4000279A329D0DF1CC08FFF77BBACDE910BB68
:103A50009DF897200E96CDF81CB0CDF824B0CDF887
:103A60004CB0CDF834B0FEF793BF129BABEB0A0617
:103A70001C1BA642A8BF2646FFF7B2BB0E9B0A9AA4
:103A80001B681A80FFF79AB843F3C01211465BB265
:103A9000FFF72CB8EC8900080223099ECDE9003617
:103AA0002EAB049329AB039327AB02930898DDE96F
:103AB000222300F0B9FF672F069000F0F581472F11
:103AC00000F03782069B27F02004462C03EB060506
:103AD00005D11B78302B00F0F482279E354400225C
:103AE000DDE922010023FCF7ADFF002800F03B8157
:103AF0002B46069A9B1A1293279A472C109200F095
:103B00001F81462C00F0E981531E612F279300F09E
:103B1000FF82412F40F01D8150210120002BAEBFBC
:103B20002B22C2F101032D22092B8DF8A8108DF84C
:103B3000A92040F349820DF1BF063246AB4C19462D
:103B40001046A4FB0352D20802EB8205A3EB450307
:103B500003F130056329134600F8015C00F1FF32E0
:103B6000EDDC303302F8013C831EB34280F0DE828C
:103B70000DF1A90213F8011BB34202F8011FF9D19C
:103B80005CAB181AA0F1AD031B93129B1B9A012B7F
:103B900003EB020B40F33982189B9B44119B2BEAE9
:103BA000EB7223F4806343F480790023CDE9103372
:103BB000139307921E9B002B40F0CE809DF8972018
:103BC0000993FEF7E5BE0C9C5846214630AA02F048
:103BD00005FAA38903F04003FEF703BE06980E968C
:103BE00001F066FF109B73270993139311930D93B4
:103BF00020EAE07383469DF897200793FEF7C8BE3E
:103C000008980BF1010100F0BFFA0690002800F0BF
:103C10009881069B0D932DE60C99089830AA02F026
:103C2000DDF900287FF47AA9329D0DF1CC08FFF769
:103C3000A2BA0C99089830AA02F0D0F900287FF4B3
:103C40006DA9DDE93135279A0DF1CC087AE6062316
:103C50000993FFF7E9BB099A0223561C1EE70323C9
:103C6000099E1BE727AADDE9220101F04FFF002290
:103C70004FF07F53FCF77EFC0022002382468B46E8
:103C8000FCF7E0FE002840F0B781594B0793099BF1
:103C9000CDE9127803F1FF394C46069E05E000227B
:103CA0000023FCF7CFFEF0B93C460022514B5046B2
:103CB00059461096FCF75EFC89468046FCF70AFFE1
:103CC0000546FCF7EDFB0B46024649464046FCF72D
:103CD00099FA079B82465B5D8B4606F8013B631CA5
:103CE00004F1FF37DBD10022DDE912785046594656
:103CF000414BA146FCF7CEFE002840F048815046DB
:103D0000594600223C4BFCF79DFE10B1EA0700F13A
:103D10003E81B9F1000FC0F25581302209F1010353
:103D2000334406F8012BB342FBD1069A27F0200456
:103D30009B1A1293E0E6069A2E9B9B1A279A1293DF
:103D4000D31C109202DB099B934218DA531E023FE8
:103D500027930020F9B2E1E62D2200238DF8972069
:103D60000993FEF718BE2E9BAB42BFF4C2AE3021C2
:103D70005A1C2E9219702E9B9D42F9D8B9E61299C1
:103D80008A42C0F2C880119BD80740F17081189B0D
:103D900002EB030B119B590502D5002A00F33A816F
:103DA00067272BEAEB73DDF85890079300231393F2
:103DB0001193FFE658460C9930AA02F00FF900283B
:103DC0007FF489AA9AF80000329933AA054433E4B3
:103DD0000C99089830AA02F001F900287FF49EA8F7
:103DE000329D0DF1CC08FFF7BFB900BFCDCCCCCCD4
:103DF000CC890008000030400000E03F78238DF8B7
:103E0000993030238DF8983049F002031193099BC3
:103E1000632B00F3E78000230D9343AB069349F433
:103E200081731693159B002B1FDB00231E93DDE986
:103E30001434CDE92234612F7FF406ABDDE9220191
:103E400027AA01F063FE00224FF07F53FCF792FB9C
:103E50000022002382468B46FCF7F4FD002840F048
:103E6000CB80AC4B079312E70D932D22DDE9143480
:103E7000229304F100431E922393DCE70C990898E7
:103E800030AA02F0ABF800287FF448A8279C329DA6
:103E90000DF1CC08FFF78DB99F491691FEF7B2BD21
:103EA00000230993FEF7F5BB119BDB077FF543AFBA
:103EB0004724851913E60C99089830AA02F08EF869
:103EC00000287FF42BA8279C129B329D0DF1CC0873
:103ED0001C1BFFF785B9582391E7119B1099099A8C
:103EE00003F00103002943EA020340F32581002B7C
:103EF00040F0B7806627DDF840B0119B5A0500F10D
:103F00008A802BEAEB73DDF8589007934EE7824ADC
:103F10001692FFF7FAB8129B189A03EB020B109B4C
:103F2000002B40F3A6806727E7E77C4A1692FEF74E
:103F3000A1BF119BDD077FF5FEAE069B3C469D1998
:103F4000CDE50C9A938943F0400393814FF0FF3302
:103F50000A93FEF749BC714A16920133169A35440A
:103F6000072BCDE93135C8F80020C8F804607EF78A
:103F7000FDAF0C99089830AA02F030F800287EF4C2
:103F8000CDAFDDE931350DF1CC08FEF7F1BF109B67
:103F90002E93079B16F8012CD97B33468A4209D110
:103FA000302003F8010C2E9B5A1E2E9213F8012C80
:103FB0009142F6D0392A0BBF079A0132927AD2B2D7
:103FC00003F8012C3346B0E6002872D130228DF878
:103FD000AA200DF1AB02303302F8013B2AABD31A11
:103FE0001B93D2E50898591C00F0CEF806900028E3
:103FF000A7D0069B0D9312E70123464A2793484B0F
:10400000612F18BF1A46079241E6119BDC077FF526
:10401000C5ADC1E5672717990B78FF2B00F0AE807F
:104020000024109A204603E001300131FF2B08D014
:10403000934206DAD21A4B78002BF5D10B78013473
:10404000F4E71791119013941092119A139BDDF8D5
:10405000589013441D9A02FB03BB2BEAEB730793A2
:10406000A8E5189BCF183A449346662745E7934640
:1040700090E6C3F101039B442BEAEB736727DDF85D
:104080005890079392E6159B0021002BB8BF2D2274
:104090004FF0030BA8BF9DF89720224C224BB8BFCE
:1040A0008DF8972029F080090D91CDF81CB0FEF70E
:1040B00067BC0DF1AA028EE7079FDDF824B0FFF779
:1040C000CDBB0022DDE922010023FCF7BBFC002868
:1040D0007FF403ADC6F101062796FFE4099B732721
:1040E0009B469DF897200E96079309901390119088
:1040F000FEF74EBC094EFFF7D5BA0E996378144609
:1041000051F8042B42EAE2720E910992FEF7BFBA0F
:10411000702102E5B8890008FC890008EC890008D4
:10412000CC890008B0890008B489000802231B93D9
:104130002BE5144A169256E4DDF8589023B9012372
:1041400066279B46079331E6189BDDF824B05F1C79
:10415000BB442BEAEB736627079327E6094B1693BC
:1041600018E40C9ADDF820B0938943F04003938162
:10417000FFF7B1B80C23CBF80030E7E60023139328
:10418000119362E7EC8900082DE9F04F01F10B056E
:10419000162D064683B024D8102900F2AA8000F01C
:1041A00087FB102518234FF0020CB74F3B445C6887
:1041B000A3F10802944200F0198130466368E26876
:1041C000A16823F00303CA60234491605A6808344D
:1041D00042F001025A6000F071FB204603B0BDE8D6
:1041E000F08F35F0070500F18480A94200F281804C
:1041F00000F05EFBB5F5FC7FC0F06F816B0A7CD0F0
:10420000042B00F21B81AB0903F1390C03F1380ECA
:104210004FEACC009C4F384444680838A04207D18C
:104220000DE0002AE16880F2DB80884207D00C466E
:10423000636823F003035A1B0F2AF2DDF446DFF80C
:104240004C823C69444500F0B980636823F0030E5A
:10425000AEEB05030F2B00F34581002BC7E9048863
:1042600080F22F81BEF5007F786880F0C680012340
:104270004FEADE014FEA5E1E194403FA0EF357F8C7
:104280003120184307EBC103083BA260E36078606C
:1042900047F83140D46001214FEAAC039940814294
:1042A00032D8014206D12CF0030C490001420CF136
:1042B000040CFAD007EBCC0A5046E146D0F80CE0EB
:1042C0000DE0DEF80420744622F00302531B0F2B8E
:1042D000DEF80CE000F3BF80002B80F2E380704535
:1042E000EFD109F1010919F0030F00F10800E5D140
:1042F00024E10C23336000246FE74FF400704FF08B
:10430000400C4FF03F0E85E7BC68636823F003095B
:10431000A94503D3A9EB05030F2B51DC5C4B082007
:104320001B6803F1100800F0B5FA5A4A04EB0903C0
:104330000093136883460133A84405D008F1FF3881
:104340008044434203EA08084146304601F0FCFD40
:10435000B0F1FF3F82464F4A00F0E18004EB0903D1
:10436000834200F2DA804C4B0BF1FF311868404475
:104370008446186040F000811AEA010F40F0FC808A
:10438000D7F808A0C84448F00102CAF804205446EF
:10439000424B1968814238BF1860414B196881420D
:1043A00038BF186022F00308A845A8EB050301D325
:1043B0000F2B05DC304600F081FA9CE778686AE74D
:1043C000621943F0010345F0010565603046BA60AB
:1043D0000834536000F072FA204603B0BDE8F08F55
:1043E000A2683046D16023448A60EFE6DC68A342CD
:1043F0007FF4E3AE0CF1020C21E7BEF5206F4FEA2B
:104400005E22C0F08380142A00F2178102F15C035F
:10441000DB005B32F918FB580839994203D1F3E00D
:104420009B68994204D05A6822F003027245F7D87B
:10443000D968C4E902318C60DC602CE7142B71D997
:10444000542B00F203812B0B03F16F0C03F16E0E62
:104450004FEACC00DEE66119304645F00105A6685A
:10446000656043F00105C6F80CE0CEF80860C7E9C6
:104470000411C1F80880C1F80C804D60A35000F011
:104480001DFA0834A9E600BF180000202000002013
:104490003C0800200C0000200C08002038080020F8
:1044A0003408002022445368304643F0010353602F
:1044B00054F8083FC3F80CE0CEF8083000F0FEF9DD
:1044C0008BE6A644DEF80430304643F00103CEF814
:1044D000043000F0F3F908347FE64FEAD50C05F11B
:1044E000080362E6621943F0010145F001056560C9
:1044F0003046C7E90422C2F80880C2F80C80516037
:1045000044F80E3000F0DAF9083466E64FEA9E12FD
:1045100002F13903DB0038327CE7BC4224D0BC68AE
:1045200062683FE703F15C0C03F15B0E4FEACC00DD
:1045300070E65AF80839534540F0D9801CF0030F53
:104540000CF1FF3CF5D17B6823EA01037B60490055
:1045500099423FF6D9AE19B9D6E6490009F10409E6
:104560001942FAD0CC46A5E6624B0BF1FF31186830
:1045700008EB000CC3F800C01068013071D004EBE8
:104580000902AAEB020262441A601AF00702CDE99E
:10459000002341D0C2F108029244D04408EA01004D
:1045A0005A44121A02EA010B5946304601F0CCFC7B
:1045B000421C019B72D0A0EB0A0000EB0B081868AC
:1045C00048F001025844BC42C7F808A01860CAF875
:1045D00004203FF4DCAEB9F10F0F45D94FF0050CC4
:1045E0006168A9F10C0222F0070201F001011143F8
:1045F00061600F2A04EB0201C1F804C0C1F808C0D1
:1046000054D8DAF80420C2E64FF0010E92100EFAE8
:1046100002F2104378600CE70AEB08020A40ABEBA9
:10462000020202EA010B5946304601F08DFC431CA0
:10463000019BC0D1DDF800B0C1E7542A18D84FEA79
:104640001E3202F16F03DB006E32E3E6B3F5AA7FA0
:1046500018D8EB0B03F1780C03F1770E4FEACC007E
:10466000D8E5C2F800A090E70123CAF80430A1E61B
:10467000B2F5AA7F25D84FEADE3202F17803DB00DB
:104680007732C7E640F25452934225D8AB0C03F17F
:104690007D0C03F17C0E4FEACC00BBE5009A4FF095
:1046A000000B083A9044A8EB0A0888E7304604F16A
:1046B0000801009301F0BEFA009BD7F808A0186823
:1046C0009FE740F254539A420DD84FEA9E4202F1BE
:1046D0007D03DB007C329DE64FF47E704FF07F0C53
:1046E0004FF07E0E96E54FF47E737E2292E67B6855
:1046F0002DE700BF0C080020024B13B1024800F068
:10470000E3B87047000000004948000870B586070C
:1047100047D0541E002A3ED00346CAB201E0013CF5
:1047200039D303F8012B9D07F9D1032C2CD9CDB235
:1047300005EB05250F2C1A4605EB054534D9A4F1E8
:10474000100C2CF00F0603F1100EB6444FEA1C1C9F
:10475000156055609560D56010327245F8D10CF146
:10476000010214F00C0F03EB021204F00F0C13D033
:10477000ACF1040323F003030433134442F8045B55
:104780009A42FBD10CF003042CB1C9B21C4403F8CB
:10479000011B9C42FBD170BD64461346002CF4D132
:1047A000F9E703461446C0E7A446E1E770B50546BD
:1047B00084B05BB11C460F4BD3F8E060234669B16F
:1047C0002846B047431C0FD004B070BD094B00F51C
:1047D0008274D3F8E06023460029F1D10A462846C6
:1047E00001A9B047431CEFD100228A2322602B602D
:1047F00004B070BD2404002070B50F4B0F4DAB42C8
:10480000A3EB050607D00024B61055F8043B01348D
:104810009847A642F9D804F0A3F8094D094B5E1B4E
:10482000AB424FEAA60606D0002455F8043B0134FB
:104830009847A642F9D870BD988D0008988D000859
:10484000988D0008A08D000838B5074D074C2C1B2B
:10485000A41005D0013C55F8043D9847002CF9D12F
:10486000BDE8384004F082B8A48D0008A08D00088F
:10487000704700BF704700BF704700BF704700BF60
:10488000014B93F82801704724040020004870472A
:1048900014050020082802D14FF48050704708B555
:1048A000FDF790FE162203464FF0FF301A6008BD58
:1048B0000148FFF7E1BF00BF440800200148FFF7AF
:1048C000DDBF00BF44080020002301461A461846F9
:1048D00001F00CBC10B51C4682B0049B00940193FF
:1048E0004FF0FF3302F0B2F902B010BD2DE9F04FE6
:1048F00003690C6985B0A342C0F291808146013CF6
:1049000001F1140509F1140855F8243058F824C0B1
:1049100001339C45BCFBF3F64FEA840005EB8407AA
:1049200008EB840243D34FF0000CAA46CDE9010501
:10493000C646634665469346CDF80C805AF8040B8C
:10494000DEF800201FFA80FC06FB0C554FEA1048E9
:104950004FEA154C06FB08CCADB290B2401B184490
:104960001FFA8CF3C3EB204303EB124380B240EAFF
:10497000034057454EF8040B4FEA1C454FEA2343CA
:10498000DCD2DDE90105DDF80C8058F8003073B9A0
:10499000ABF10402904504D307E0904504F1FF34E5
:1049A00003D252F80439002BF7D0C9F8104048461A
:1049B00001F072FF00282EDB4146002255F8040B5F
:1049C000D1F800C01FFA80FE1FFA8CF3A3EB0E0390
:1049D0001344020CC2EB234202EB1C429BB243EA9B
:1049E0000243AF4241F8043B4FEA2242E6D258F874
:1049F000242008EB84036AB9043B984504D307E0FC
:104A0000984504F1FF3403D253F80429002AF7D063
:104A1000C9F810400136304605B0BDE8F08F0020DF
:104A200005B0BDE8F08F00BF2DE9F04F16461F46D8
:104A3000816B9FB0CDE904672B9D039049B10123A1
:104A4000C26B044693408B604A6001F0C9FC0023AE
:104A5000A363B7F10009B4BF012300232B60784B97
:104A6000BCBF29F00049CDF8149033EA090300F0E7
:104A7000AB80DDE904341846214600220023CDE94D
:104A80000801FBF7DFFF804668B101232A9A136013
:104A90002C9B13B16B4B2C9A13606B4B0A930A98A7
:104AA0001FB0BDE8F08F1CAB01931DAB00930398C2
:104AB000DDE9082301F0C0FF5FEA1955824640F0A6
:104AC0009980DDE91C85454405F23243202B40F3F3
:104AD0008683C3F1400309FA03F905F2124326FA6B
:104AE00003F349EA0300FBF7CBFC0123013D1193DB
:104AF000A1F1F8710022554BFBF784FB4AA3D3E9DF
:104B00000023FBF737FD4AA3D3E90023FBF77CFB27
:104B1000064628460F46FBF7C3FC47A3D3E900230C
:104B2000FBF728FD02460B4630463946FBF76CFB87
:104B300006460F46FBF7CEFF002283460023304691
:104B40003946FBF789FF002840F01D83A8EB0508D4
:104B5000BBF1160F08F1FF3400F29081DDE9080186
:104B60003B4D05EBCB05D5E90023FBF775FF00288E
:104B700074D00023002C0BF1FF3B1093C0F2838113
:104B800000230B93BBF1000F6EDA0B9BCDF838B00E
:104B9000A3EB0B030B93CBF100030F93289B4FF078
:104BA000000B092B68D8052B40F31E830025043B1E
:104BB0002893289B023B032B00F22986DFE813F0A1
:104BC0006304600457043B0442F20F732A9AC9F34A
:104BD000130959EA060913601CD12C9B002B00F025
:104BE00031861C4B0A9308332C9A0A9813601FB025
:104BF000BDE8F08FDDE90812C2F31303084643F065
:104C00007F51CDF84480A5F2FF35DDF8708041F486
:104C100040116FE72C9B002B40F0EA830E4B0A9368
:104C20003DE700BFAFF3008061436F63A787D23FCA
:104C3000B3C8608B288AC63FFB799F501344D33F8B
:104C40000000F07FE9890008E88900080000F83FCB
:104C5000A88C0008548A0008608A0008B8F1000F88
:104C600040F3608410900B9000230F93289B5C44CA
:104C7000092BCDF838B096D9002328934FF0FF3395
:104C80000125069300230C9529930021069B189378
:104C9000039BD963039801F07DFB0A90002800F084
:104CA000BF85039B0A9A9A63069B0E2B00F215811F
:104CB000002D00F012810E9A002A40F33A84B24D82
:104CC00002F00F0305EBC303D0054FEA2215D3E929
:104CD000008940F1F983DDE90801AC4B0327D3E9F2
:104CE0000823FBF771FDCDE9120105F00F057DB139
:104CF000A64EE90708D5D6E9002340464946FBF70A
:104D000039FC8046894601376D1006F10806F0D15E
:104D1000DDE9120142464B46FBF756FD80468946C7
:104D2000109B43B1002240464946994BFBF794FE45
:104D3000002840F0F3843846FBF7B2FB42464B466E
:104D4000FBF718FC934B0022FBF75EFA069B064626
:104D5000A1F15077002B00F0A9800E9B1993069BC0
:104D600012930A9B49464046CDE914675E1CFBF747
:104D7000B1FE854D1299074605EBC10353E90212B6
:104D8000CDE91612FBF78CFB02460B46404649461E
:104D9000FBF738FADDE9162389460C99303780464F
:104DA000FFB2002900F0548400207B49FBF70CFD82
:104DB000DDE91423FBF726FA02460B460A9DCDE9EE
:104DC00014232F7042464B46FBF764FE002840F048
:104DD0009984CDE91AB4CDF858A00027DDE914ABC9
:104DE000129D2AE00137AF4280F2E08450465946D6
:104DF00000226A4BFBF7BEFB0022684B82468B46C3
:104E000040464946FBF7B6FB89468046FBF762FE03
:104E10000446FBF745FB02460B4640464946FBF776
:104E2000F1F9303452465B4606F8014B804689461C
:104E3000FBF712FE002840F0B68442464B460020A5
:104E40005349FBF7DFF952465B46FBF705FE0028A6
:104E5000C8D0199B3746DDF858A00A9A03F101081B
:104E600002E0974200F07E843E4617F8013D392B60
:104E7000F7D00133DBB245463B7073E10123002CD0
:104E80001093BFF67DAEC8F1010300240B9379E6C1
:104E90003846FBF705FB42464B46FBF76BFB00220F
:104EA0003C4BFBF7B1F90646A1F150774046494625
:104EB00000223B4BFBF7A6F932463B46804689462B
:104EC000FBF7E8FD002840F05C8440464946324646
:104ED00007F10043FBF7C0FD28BB1D9B002BC0F270
:104EE00091800E9A0E2A00F38D80274D0E9B05EBC4
:104EF000C305D5E90034CDE90434299B002B19DA28
:104F0000069B002B16DC0ED1DDE904010022244BA8
:104F1000FBF730FB02460B46DDE90801FBF7A6FD77
:104F2000002800F02E844FF000094F460A9E299B6E
:104F3000DD4324E2DDE90445DDE9088922462B460C
:104F400040464946FBF740FCFBF7C4FD0646FBF72D
:104F5000A7FA22462B46FBF70DFB0A9F0B4602469B
:104F600049464046FBF74EF906F1300307F8013B8E
:104F7000069B012B00F011830125CDF818A099465E
:104F8000DDE904ABA8462BE0A88C0008808C000863
:104F90000000F03F00001C400000E03F0000244003
:104FA0000000144052465B4620462946FBF70CFCA5
:104FB000FBF790FD0646FBF773FA52465B46FBF79C
:104FC000D9FA08F101080B46024629462046FBF7AC
:104FD00019F906F13003C84507F8013B00F0DB8200
:104FE0000022B94BFBF7C6FA0022002304460D4607
:104FF000FBF728FD0028D5D00E9D3E46DDF818A011
:105000000135AFE00C9A002A40F0D18000231F4602
:105010000F9E0B9D0C9355B1002C08DDA5422B462D
:10502000A8BF23460B9AED1AD21A0B92E41A0F9BD3
:1050300053B10C9B13B1002E40F0E88251460F9AF9
:10504000039801F059FB82460121039801F074FA9C
:105050008146BBF1000F40F0B681289B012B40F345
:10506000CC810120204410F01F0000F09980C0F195
:105070002003042B40F3DA810B9BC0F11C00034496
:105080000B93054404440B9B002B05DD51461A4647
:10509000039801F08BFB8246002C05DD4946224631
:1050A000039801F083FB8146109B002B40F0708138
:1050B000069B002B40F348810C9B002B40F0A38003
:1050C0000E9D01350126DDF82880069CDDF80CB028
:1050D00007E0514600230A22584601F08BF9824628
:1050E000013649465046FFF701FCA64200F1300365
:1050F00008F8013BEDDB069A0024002ACCBF1646D7
:1051000001260A9A02EB060B5146012203980493EA
:1051100001F04CFB4946824601F0BEFB002840F3FB
:10512000E4810A9A02E05A4500F0EA811BF8013C4A
:105130005E46392B0BF1FF3BF5D001338BF8003085
:10514000DDF80C804946404601F04AF957B12CB1D0
:10515000BC4203D02146404601F042F9394603984B
:1051600001F03EF95146039801F03AF900233370FB
:105170002A9B1D602C9B002B3FF491AC0A981E606B
:105180001FB0BDE8F08F5846FBF78AF932463B4620
:10519000FBF758FC00287FF4D9AC0BF1FF3BD5E4BA
:1051A0001C230B9A1D441A440B921C446BE7289A4B
:1051B000012A40F3AA81069A0F9B561EB342C0F201
:1051C0006C81002AA3EB060680F2E1820B9B069A13
:1051D0009D1A0121039801F0AFF907461BE7C3F1BF
:1051E000200306FA03F07EE40125E2E439460023B9
:1051F0000A22039801F0FEF8189B0746002B40F3A3
:10520000F3820E960693002D00F34081BBF1000F50
:1052100040F0E081B8460A9B069C1E46013B1C44B8
:10522000049B03F00103CDE90B43039C4946504620
:10523000FFF75CFB39468346504601F02DFB4246A2
:1052400049460546204601F047FBC26801460BF17E
:105250003003002A3AD106905046089301F01CFB17
:10526000024606992046069201F0BAF8069A089B73
:10527000002A59D1289A1AB90C9A002A00F09C8267
:10528000002D44DBB3460B9A0BF8013BB24200F011
:10529000B881514600230A22204601F0ABF8474569
:1052A000824639464FF000034FF00A02204635D0BF
:1052B00001F0A0F84146074600230A22204601F0EB
:1052C00099F85E468046B1E70000244003980693B3
:1052D00001F086F8002D069B06DB049A289902F05F
:1052E00001020D432A432AD1514601220398049317
:1052F00001F05CFA4946824601F0CEFA0028049B90
:1053000040F3E880392B00F032820BF131030E9D1F
:105310003C460135474606F8013B11E701F06AF8C3
:105320005E460746804681E7002DC0F280822899BC
:105330000D430C990D4300F07A82002AA2DD392B2F
:1053400000F015820133E2E7289B022B7FF7B4AE11
:10535000069B002B40F01D8149460522039801F071
:1053600049F881465046494601F096FA002840F334
:10537000108131230E9D0A9E013506F8013B4946F6
:105380000398013501F02CF8002F7FF4E7AEE9E631
:105390004946504601F080FA0028BFF689AE5146D2
:1053A00000230A22039801F025F80E9B82465E1E18
:1053B0000C9B002B7FF41AAF189B002B40F302824A
:1053C0000E9D06937EE601465A46039801F094F935
:1053D000289B8146012B6CDD4FF0000BD9F8103073
:1053E00009EB8303186901F057F8C0F1200039E692
:1053F000934B0A930333FFF7F7BB049B002B7FF417
:1054000030AEDDE90412C2F31303002B7FF429AEA2
:105410008C4B134023B10B9B013401330B930123BD
:10542000BBF1000F40F0B1819B461AE63FF42BAE72
:10543000C0F13C03B5E601230C93299B0E9A13445B
:1054400018930133012B1E46B8BF01260693172E71
:1054500040F3D881012204235B0003F11400B04221
:10546000114602F10102F7D9039BD96312E401232B
:105470000C93299B002B33DD1E4618930693E6E719
:1054800000230C93D9E700230C93F2E739462A4610
:10549000039801F08BF90746B8E60F9B069AF31ABA
:1054A0009B440B9B0F961D461344002614440B93FC
:1054B0008FE6049B002B8FD1DDE90401C1F31303B8
:1054C0000A46002B88D1A3E7DDE908230227CDE9AE
:1054D00012230CE47FF41BAFDC077FF518AF11E754
:1054E000012329930693FFF7D0BB03D1049BD80770
:1054F0003FF517AE5E461BF8013D302BFAD01FE694
:1055000031230A9A013513701AE6119A002A00F025
:10551000FC8003F233430B9A0F9E15461A441C4439
:105520000B9256E6C8F1010304460B931090FFF767
:105530009BBB00F0EE80DDE908010E9B424D5E4210
:1055400006F00F0305EBC303D3E90023FBF712F8C2
:105550003511CDE9120100F0508100230227804669
:1055600089463A4EEA0709D5D6E90023404649461E
:10557000FBF700F801238046894601376D1006F1DC
:105580000806EFD1002B7FF4CBABDDE91289FFF7E2
:10559000C7BB0A9ECBE4DDF818A002460B46FAF71B
:1055A00033FE02460B460E9DCDE90623DDE90423BA
:1055B0000135A846FBF76EFA40B9DDE90423DDE9C1
:1055C0000601FBF73FFA18B1F60701D50A9A4BE43A
:1055D0003E46C7E50398796800F0DCFE05460028E2
:1055E00000F029813B6907F10C0102339A000C306D
:1055F000FAF78EFD29460122039801F0D7F880467C
:1056000009E60E9D3C46013547467DE5DDF80C90E8
:1056100039463246484601F06FF807465246394649
:10562000484600F0B7FF80465146484600F0D8FE95
:105630000F9BC2469B1B0F933FF406ADFEE400BFD9
:10564000608A00080000F07FA88C0008808C0008A9
:10565000DDE91401FAF78EFF0A9BCDE90C011F70FA
:10566000129B012B00F0C780129F0A9BCDF844B01B
:105670001F4400227B4B40464946FAF77BFF894690
:105680008046FBF727FA8346FAF70AFF02460B46E5
:1056900040464946FAF7B6FD0BF1300B06F801BB60
:1056A000B74280468946E4D1DDF844B00022DDE906
:1056B0000C016D4BFAF7A8FD02460B4640464946E1
:1056C000FBF7E8F9002868D1DDE90C2300206649E2
:1056D000FAF798FD02460B4640464946FBF7BCF9EF
:1056E00048B91D9B002BFFF691AC0E9B0E2B3FF78C
:1056F0008DACFFF7FBBB17F8013C3E46302B07F1A2
:10570000FF37F8D0199D01352CE51C9BC3F13603FA
:1057100001E70227DDE90889FFF702BB069B002BA2
:105720003FF4B6AB189B002B7FF7D7AB12930E9BC1
:105730000022013B4046494619934A4BFAF71AFFAB
:1057400080468946781CFAF7ABFE42464B46FAF78C
:1057500011FF0022454BFAF757FD0646A1F150779D
:10576000FFF7FFBA312308F10108FFF784BBB34606
:1057700039230E9D3C460A9A474601350BF8013BFA
:10578000D4E44FF000094F46F3E59B4626E60B9B19
:1057900014441D4613440B931BE5199B0A9A03F10D
:1057A0000108FFF761BBDDF858A0ABE7DDF858A0B2
:1057B000DDE91AB4FFF791BB392BD8D0002D3FF7A4
:1057C000A4ADA4E5289B022B0ADC189B494606934E
:1057D0000E9DFFF78BF80A9A00F1300313708AE4EC
:1057E000189B0E960693B3E5289B022BF8DC189BBA
:1057F0000E96069307E5374658E70227DDE912893A
:10580000FFF78EBA0021039BD963FFF743BA002547
:10581000039B29461846DD6300F0BCFD0A90A8B939
:10582000002240F2AF11124B124800F033FD002A63
:105830007FF76DAD58E5024640F2EF210C4B0D4865
:1058400000F028FD0C4B0A93FFF729B9039B0A9A35
:1058500029959A634FF0FF33012218930C92069317
:10586000FFF73BBB000024400000E03F00001C406D
:10587000648A0008788A0008548A0008024A0349AA
:10588000034800F089BB00BFB8060020D5620008BD
:10589000980500200C4B416810B59942044601D090
:1058A00000F018FDA168094B994202D0204600F093
:1058B00011FDE168064B994204D02046BDE8104036
:1058C00000F008BD10BD00BF50080020B80800203F
:1058D000200900202DE9F84300250423304C314AEB
:1058E0003149DFF8C890DFF8C880324F324E11607E
:1058F00004F15C0029460822C4E90335C4E90055D7
:10590000C4E90555A5606566FEF700FF04F158007F
:10591000C4E90749C4E90987E662FEF7A9FF274BF6
:105920002946082204F1C4006367C4E91A55C4E992
:105930001E552567C4F8CC50C4F88050FEF7E6FE2B
:1059400004F1680304F1C000C4F88430C4E922986B
:10595000C4E92476FEF78CFF194B294604F59670AE
:105960000822C4F8DC30C4E93455C4E93855C4F819
:10597000D850C4F83451C4F8E850FEF7C7FE04F11B
:10598000D003C4E93D87C4F8F09004F59470C4F8DE
:10599000FC60C4F8EC30BDE8F843FEF769BF00BF17
:1059A00050080020880900207D5800089D5E0008EE
:1059B000C15E0008015F0008255F000809000100C2
:1059C0001200020010B504460A48FEF755FF636B4B
:1059D00023B9094B094A1B68626323B1BDE8104033
:1059E0000448FEF74BBFFFF775FFBDE810400148C4
:1059F000FEF744BF4C080020880900209558000895
:105A00000148FEF739BF00BF4C0800200148FEF7EF
:105A100035BF00BF4C0800205FFA81FC810744D0ED
:105A20000346511E22B909E09A0709D0013905D36E
:105A30001846027801336245F6D17047002070475E
:105A4000184603290CD80029F8D00346014401E088
:105A50008B42F3D0184613F8012B6245F8D1ECE7DE
:105A600010B50CEB0C24024604EB044402E00439AC
:105A7000032918D9104652F8043B6340A3F1013EB4
:105A80002EEA030313F0803FF1D051B103460144E5
:105A900001E08B4205D0184613F8012B6245F8D17E
:105AA00010BD002010BD1046EFE71146C9E700BF4A
:105AB00020F0030110F00300C0F1000051F8043B96
:105AC00000F1040C4FEACC0C6FF000021CBF22FA6C
:105AD0000CF213434FF0010C4CEA0C2C4CEA0C4C2A
